:100000000C9403031895189518951895189518953C
:100010001895189518951895189518951895189578
:100020001895189518951895189518951895189568
:100030001895189518951895189518951895189558
:100040000C943202189518951895189518951895CE
:100050001895189518951895189518951895189538
:100060001895189518951895415335303435202D2D
:1000700020636F6E76657274696F6E206F662054B0
:1000800069636B7320746F20416E676C65008A939F
:10009000A8950091600008610093600008E2009359
:1000A00060000EE105B90EE204B907E20BB906E003
:1000B0000AB94D9B04C001E00093310203C000E087
:1000C0000093310200E005BD08EB06BD00E004BD71
:1000D00004E005BD01E000936E0001E000932F02F3
:1000E00000E000933002A89578940091310200233B
:1000F00009F42DC100E00093C10000E00093C000AE
:1001000006E00093C20007E40093C40000E00093FF
:10011000C50008E00093C100C2D108E610E00E94CB
:10012000ED020DE00E945A020AE00E945A0200E924
:1001300011E00E946C020DE00E945A020AE00E9447
:100140005A0200912F020023E1F701E000932F02F1
:100150002A9800E0A7D10EB500931D0200E0A2D1BD
:100160000EB500931C0200E09DD10EB500931B025A
:100170004BE0EBE1F2E000811181228133810E94AA
:100180004103EFE1F2E0008311832283338305EB27
:1001900011E00E946C02009120020E9479020091FD
:1001A0001F020E94790205EC11E00E946C02EFE14F
:1001B000F2E000811181228133810E94970345E2A0
:1001C00056E061E67FE30E9449040E94990320E023
:1001D00030E0E3E2F2E00083118322833383E3E241
:1001E000F2E000811181228133810E94830207ECB9
:1001F00011E00E946C02EBE1F2E0008111812281AA
:1002000033810F7F177020703070E7E2F2E00083D7
:100210001183228333834AE0E7E2F2E00081118117
:10022000228133810E944103E7E2F2E000831183DF
:1002300022833383E7E2F2E000811181228133815E
:10024000012B022B032B29F40BEC11E00E946C0212
:1002500012C0E7E2F2E00081118122813381013096
:1002600040E0140740E0240740E0340721F408EDA3
:1002700011E00E946C02EBE1F2E000811181228129
:1002800033810F7F137020703070EBE2F2E0008357
:10029000118322833383EBE2F2E00081118122811A
:1002A0003381000F012F001F122F111F232F221F38
:1002B00030E0331FEBE2F2E00083118322833383CB
:1002C000EBE2F2E00081118122813381012B022BCC
:1002D000032B29F407EE11E00E946C022AC0EBE226
:1002E000F2E00081118122813381033040E0140764
:1002F00040E0240740E0340729F403EF11E00E94B6
:100300006C0217C0EBE2F2E000811181228133819F
:10031000073040E0140740E0240740E0340729F4A8
:1003200000E012E00E946C0204C00AE012E00E94A9
:100330006C020DE00E945A020AE00E945A02299BB8
:1003400002C0299801C0299A2A9AA895FACE00E0FD
:100350000093C10000E00093C00006E00093C200DB
:100360000FE10093C40001E00093C5000CE000938E
:10037000C10000E005BD08EB06BD00E004BD04E0DF
:1003800005BD01E000936E008AD078940091C10011
:100390000F7E0093C10004E000932F02489903C030
:1003A00004E000932F0200912F020023B9F700917F
:1003B000C10000610093C1000091C000102F17FF21
:1003C000FBCF0091C100102F11FFE0CF0091C600BC
:1003D000802F8F708430D1F608E70093300229987F
:1003E0002A9800E05FD00EB500931D0200E05AD0BD
:1003F0000EB500931C0200E055D00EB500931B0211
:100400004BE0EBE1F2E000811181228133810E9417
:100410004103EFE1F2E00083118322833383EFE1B4
:10042000F2E000811181228133810E94970345E22D
:1004300056E061E67FE30E9449040E94990320E0B0
:1004400030E0E3E2F2E00083118322833383009102
:1004500024020E945A02009123020E945A022A9A00
:10046000A89594CF1A930A931FB708EB06BD009185
:100470002F02002329F000912F020A9500932F02EA
:1004800000913002002331F0009130020A95009370
:10049000300201C0299A1FBF0991199118950FE5E3
:1004A0000CBD0895102F1EBD0DB5202F27FFFCCFCA
:1004B0000EB508951091C00010641093C000109103
:1004C000C1001E7F1093C1000093C6001091C000B0
:1004D000212F26FFFBCF0895BA93AA93D8010C9140
:1004E000002321F00C91E6DF1196F9CFA991B99183
:1004F00008958A93802F082F02950F7011D0082F2E
:100500000FD0899108959A938A932897C8019E01E4
:100510008C0116D08E01E0DF28968991999108957B
:100520009A938A93902F092F0F70802F8A3010F0A2
:10053000895C01C0805D082FBDDF89919991089584
:100540000E94B504D801C9019D018C0103D0E4E0EB
:100550000C94BB040E94B504D801C901992332F45C
:100560009195819590400DE20C9302C00BE20C93A3
:1005700048EE53E08C010E942D03005DFD010183D4
:1005800048EE53E08C010E942D038A0144E650E0BE
:100590000E942D03005DFD01028348EE53E08C01B3
:1005A0000E942D038A0144E650E00E942D038A0137
:1005B0004AE050E00E942D03005DFD0103834AE004
:1005C00050E08C010E942D03405DFD01448300E05A
:1005D000FD010583E4E00C94BB040E94B404C8014F
:1005E000A0E0B0E0FC01EA0FFB1F0491A395402EB0
:1005F000002319F0042D5EDFF4CFE5E00C94BA047B
:1006000000008895FECF0FE80DBF01E00EBFC0E5EA
:10061000D1E00E94C404002311F00E94D4040E947F
:1006200047000E9400030C94000300241124EFE013
:10063000001F111F001C111C0416150610F0041ACF
:10064000150AEA95AAF7001F111FA0010095109541
:1006500008955195419550400895FF27552312F470
:10066000F160F7DF112312F4F09507D00E94150313
:10067000F0FD03D0F1FDEDCF0895119501951040E7
:1006800008954A952AF03695279517950795F9CF3D
:10069000089530952095109501951F4F2F4F3F4F8E
:1006A0000895FF27112477FB660F771F089409F43C
:1006B000771F679517F8EE27002437FB220F331FAB
:1006C000089409F4331F279507F8089527FD0EC0F5
:1006D000EE0F001F111F221F3A953230B8F7332357
:1006E00019F427FD31E002C027FF30E0E03821F4A3
:1006F00000FF08940EF488940F4F1F4F2F4F3F4F69
:10070000323038F4332319F427FD31E002C027FFDB
:1007100030E03F3F29F0220F000C379527950895D0
:10072000A4C0E02F012F122F232F3EE9D6CF0024A3
:10073000F8CFC1DF432F4F5748F04F3148F007FC47
:100740008EC03FE72FEF1FEF0FEF0895332789C0CB
:10075000322F212F102F0E2F4F5141950E94410310
:1007600007FE08950C944903F901EE0FFF1F37FBB4
:10077000FF3F31F0EF2BE12BE02B8894B8940895E4
:10078000E02BE12B21F008949894B8940895989464
:10079000889438940895FB01EE0FFF1F77FBFF3F0D
:1007A00031F0EF2BE52BE42B8894B8940895E42BDB
:1007B000E52B69F3E8CFEFDF68F021F43723262F2C
:1007C0008A010895372FFBCFE6DF20F00BF0089564
:1007D0007327EAF74EC0C8DFE8F3B3F361F3DBDF5A
:1007E000C8F383F3A1F35DDF401751076207730776
:1007F00031F4011411F10024E89488942BC078F0AE
:10080000332E372F732D322E262F632D312E152F99
:10081000532D302E042F432D302C012C132C371741
:1008200039F0669557954795F795E0407395F7CF62
:10083000E7FBEE0FE0E010246AF0EF0F041F151F36
:10084000261F60F4279517950795E79508F4689497
:10085000339543CFEF0B040B150B260B3ECF302DFA
:10086000307822271127002708953FE7302920E814
:10087000F9CF3FEF2FEFF6CF8EDFD8F3D1F37078BB
:100880003727089588DFA8F3A3F3F9CF3078372707
:1008900096CF6ADF70F383F3A9F37DDF50F3B3F3F0
:1008A000A9F3FFDE0124E8943F57E040370FEF1F24
:1008B00012F0D9F603C03A3E90F26894E0E00A9252
:1008C000AA933A93AA27332422243327049FF001C2
:1008D000059FF00D712D731F149FF00D711D221CCB
:1008E000069F700D211C331C159F700D211C331E9B
:1008F000249F700D211C331E169F200C311CAA1F33
:10090000259F200C311CA31F269F300CA11D39915F
:100910005EF43395A695379427947795F795E795E8
:1009200033953130BCF316C0AA2322F0332351F49F
:10093000339510C0339571F4A991099096CFA7FD16
:1009400009C03A95EE0FFF1F771F221C331CAA1F08
:100950003230A8F7E894FE2B09F068942A2F810121
:10096000E72FA9910990C2CE4A92BA93AA939A937B
:100970008A9308954C80BB81AA8199818881F0E097
:10098000EC0FFD1FEF01089501E0089520E006D06F
:10099000E9F70895259102D0E9F708952D930150C4
:1009A0001040202F212B08958CED99E0FC0105913A
:1009B0001491FC013296A591B491FC0134962591D5
:1009C0003491422F432B19F0F901E4DF01C0DEDF3F
:1009D000069619E0883E910748F308958B00900130
:1009E000E80917001B0200002D2D2D2D2D2D2D2D7A
:1009F0002D2D2D2D2D2D2D2D2D2D2D2D2D2D2D2D27
:100A00002D2D2D2D2D2D2D2D2D2D2D2D00546963AA
:100A10006B2F416E676C65203D203078002F0060A1
:100A20003B200076616C696420646174613B200046
:100A3000696E76616C696420646174613B20004773
:100A40005245454E2072616E67650059454C4C4FCA
:100A5000572072616E6765005245442072616E676F
:100A600065006F757473696465206F662072616ECE
:030A7000676500B7
:00000001FF
:00000001FF
