:100000000C946301189518951895189518951895DE
:100010001895189518951895189518951895189578
:100020001895189518951895189518951895189568
:100030001895189518951895189518951895189558
:100040000C941001189518951895189518951895F1
:100050001895189518951895189518951895189538
:10006000189518951895189503EF0BB902ED0AB974
:100070000DE105B90FE204B94D9B04C001E0009306
:10008000930103C000E00093930100E005BD08EB7D
:1000900006BD00E004BD04E005BD01E000936E0074
:1000A00000E00093910108E017E0009395011093A0
:1000B000960101E0009392015C9B02C05C9801C034
:1000C0005C9A789400919301002371F500E000930D
:1000D000C10000E00093C00006E00093C20007E406
:1000E0000093C40000E00093C50008E00093C10045
:1000F0005F980CED00C00A95E9F75F9AD7D001C070
:100100005C9A009192010023E1F701E000939201D3
:100110002A980FE010E0CDD00EE010E0CAD02A9A65
:100120005C9BEECF5C98EDCF00E00093C10000E057
:100130000093C00006E00093C2000FE10093C400EA
:1001400001E00093C5000CE00093C10053D056D0ED
:1001500006E9009390010FE0009391015C9B02C0BF
:100160005C9803C05C9A01C05C9A0091C1000F7E4C
:100170000093C10004E000939201489903C004E099
:1001800000939201009192010023B9F70091C10000
:1001900000610093C10004C00091C6000093940167
:1001A0000091C000102F17FDF7CF0091C000102F55
:1001B00017FFFBCF0091C100102F11FFD6CF009188
:1001C000C60000939401009194010F700093940174
:1001D000009194010F3029F4289B02C0289801C097
:1001E000289A08D00BD00FE0009391015C9BBCCF04
:1001F0005C98BBCF0FB7F8940FBF0895009195019D
:1002000010919601083027E0120748F02FB7F894B4
:1002100000E010E000939501109396012FBF089520
:10022000FA93EA933A932A931A930A933FB708EB07
:1002300006BD00919201002329F0009192010A95D8
:1002400000939201009191010F700023B9F0009189
:100250009001002331F0009190010A9500939001E4
:100260000DC0009191010A950093910106E9009358
:1002700090015C9B02C05C9801C05C9A0091950162
:1002800010919601083027E0120740F4E5E9F1E00B
:10029000008111810F5F1F4F008311833FBF0991C0
:1002A000199129913991E991F99118950FE50CBDB2
:1002B00008950EBD0DB5102F17FFFCCF0EB5089594
:1002C00000008895FECF0FE80DBF01E00EBFC0E52E
:1002D000D1E00E947501002311F00E9485010E9467
:1002E00034000E9460010C94600101E0089520E058
:1002F00006D0E9F70895259102D0E9F708952D93E6
:1003000001501040202F212B08958EE393E0FC0133
:1003100005911491FC013296A591B491FC0134969B
:1003200025913491422F432B19F0F901E4DF01C0EC
:10033000DEDF069613E08434910748F30895070042
:040340009001000028
:00000001FF
:00000001FF
