:10000300E4F5A875D701D2C075C07275984075899B
:100013000175CBFF75CAE575CDFF75CCE575C830A5
:10002300D2CA1201B3EF60FA75110FE51175F0082A
:10003300A4FF240FF9E4FAFBC00174172FF9E4A815
:1000430001FCFDD001FE7F081203B0D511DD781746
:100053007C007D007B007A0079087E007F08120314
:10006300B0E4F515F514F513F512F511E51175F076
:1000730008A42417F8E6FE08E6FFE4FCFDE5152FC7
:10008300F515E5143EF514ED3513F513EC3512F5BE
:10009300120511E511B410D4AF15AE14AD13AC12A3
:1000A30078041203D68F158E148D138C12E48E08E8
:1000B3008F09F515F514F513F512F511E51175F022
:1000C30008A42419F8E6FE08E6FFE4FCFDE5152F75
:1000D300F515E5143EF514ED3513F513EC3512F56E
:1000E300120511E511B410D4AF15AE14AD13AC1253
:1000F30078041203D68F158E148D138C12E48E0A96
:100103008F0BF515F514F513F512F511E51175F0CF
:1001130008A4241BF8E6FE08E6FFE4FCFDE5152F22
:10012300F515E5143EF514ED3513F513EC3512F51D
:10013300120511E511B410D4AF15AE14AD13AC1202
:1001430078041203D68F158E148D138C12E48E0C43
:100153008F0DF515F514F513F512F511E51175F07D
:1001630008A4241DF8E6FE08E6FFE4FCFDE5152FD0
:10017300F515E5143EF514ED3513F513EC3512F5CD
:10018300120511E511B410D4AF15AE14AD13AC12B2
:1001930078041203D68F158E148D138C12E48E0EF1
:1001A3008F0F1203E9C2AFD2C0D2C1D2AF02002572
:1001B300C28CE4FFF58CF58A2090FD209006EF6059
:1001C300031F80F7EF60037F0022E4FF3090FDD22E
:1001D3008C309006EF60031F80F7EF60037F0022EF
:1001E300E4FF2090FDC28C209006EF60031F80F790
:1001F300EF60037F0022858A09858C08E4FFF58C74
:10020300F58A3090FDD28C309006EF60031F80F7A3
:10021300EF60037F0022E4FF2090FD209006EF6053
:10022300031F80F7EF60037F0022E4FF3090FDC2DD
:100233008C309006EF60031F80F7EF60037F00228E
:10024300858A0B858C0AE4FFF58CF58A2091FD20C5
:100253009106EF60031F80F7EF60037F0022E4FF46
:100263003091FDD28C309106EF60031F80F7EF6071
:10027300037F0022E4FF2091FDC28C209106EF60F2
:10028300031F80F7EF60037F0022858A0D858C0CA6
:10029300E4FFF58CF58A3091FDD28C309106EF6046
:1002A300031F80F7EF60037F0022E4FF2091FD200E
:1002B3009106EF60031F80F7EF60037F0022E4FFE6
:1002C3003091FDC28C309106EF60031F80F7EF6021
:0C02D300037F0022858A0F858C0E7F01BE
:0102DF0022FC
:1003E90075165AAF16120423AF0912041EAF08126C
:1003F900041EAF0B12041EAF0A12041EAF0D120425
:100409001EAF0C12041EAF0F12041EAF0E12041EF3
:05041900AF16020423F0
:05041E00EF2516F516A4
:080423008F993099FDC2992266
:0300000002042BCC
:06042B007581960200033A
:1002E000E709F608DFFA8046E709F208DFFA803E00
:1002F00088828C83E709F0A3DFFA8032E309F608ED
:10030000DFFA8078E309F208DFFA807088828C8354
:10031000E309F0A3DFFA806489828A83E0A3F60808
:10032000DFFA805889828A83E0A3F208DFFA804CE2
:1003300080D280FA80C680D4806980F280338010B9
:1003400080A680EA809A80A880DA80E280CA803322
:1003500089828A83ECFAE493A3C8C582C8CCC5839A
:10036000CCF0A3C8C582C8CCC583CCDFE9DEE7806A
:100370000D89828A83E493A3F608DFF9ECFAA9F0E9
:10038000EDFB2289828A83ECFAE0A3C8C582C8CC3F
:10039000C583CCF0A3C8C582C8CCC583CCDFEADE58
:1003A000E880DB89828A83E493A3F208DFF980CCBA
:1003B00088F0EF60010E4E60C388F0ED2402B404B3
:1003C0000050B9F582EB2402B4040050AF2323455A
:0603D0008223900330734C
:1003D600E8600FECC313FCED13FDEE13FEEF13FF05
:0303E600D8F12229
:00000001FF
