:100000000C94240618951895189518951895189518
:100010001895189518951895189518951895189578
:100020001895189518951895189518951895189568
:100030001895189518951895189518951895189558
:100040000C940705189518951895189518951895F6
:100050001895189518951895189518951895189538
:100060001895189518951895192E282EA80160E056
:1000700080E090E018C0FA01E80FF91F008018E056
:10008000062F0170702D717007270170013011F477
:1000900078E167276695013009F4606806941A953F
:1000A000113070F701968217930729F7062F822DDA
:1000B000912D08950E948908A02FC9010E9466050C
:1000C0000E944A05002351F09C0104E40E94F805B7
:1000D000A13011F00E94530500E001C002E0E3E00E
:1000E0000C949A080E9488082997D80120E030E0F3
:1000F0000EEB0E94F80580E008C00E94F505FE01A5
:1001000090E0E80FF91F008383958930B0F329E070
:1001100030E08E010E943400002311F003E013C090
:10012000088102950F700F7089818295807F807F92
:10013000082B07FB2EF40F7E1FE7101B012F01C0B9
:1001400000680C9300E02996E4E00C9499080E9462
:10015000840807E91CE02CEF3EE3E9EAF1E00083C4
:1001600011832283338306E71CE829EF3EE3EDEA9F
:10017000F1E0008311832283338349EB55E668EB7A
:100180007EE30CE514EB2EE13FE3EEE44E2EE0ECD3
:100190005E2EEBEB6E2EEEE37E2E85EB92E9ACE16C
:1001A000BFE30E94320740E050E060E070E40E944C
:1001B000C807E1EBF1E00083118322833383A201BE
:1001C000B3018C019D010E94320740E050E060E0E5
:1001D00070E40E94C807E5EBF1E0008311832283FD
:1001E0003383E8E00C9495080E947C0826970BE77F
:1001F0000BB902EC0AB905E005B907E004B94D9B5B
:1002000004C001E00093C20103C000E00093C201FA
:1002100000E00093BE010091C201002379F100E0EB
:100220000093C10000E00093C00006E00093C2000C
:1002300007E40093C40000E00093C50008E00093C9
:10024000C10062E04AE250E02BE230E009E210E057
:100250000E9435050E94660500E00093810000E0E1
:100260000093850000E00093840001C02A9AC1D168
:100270007CD38DD32A9BFACF2A98F9CF00E0009344
:10028000C10000E00093C00006E00093C2000FE14F
:100290000093C40001E00093C5000CE00093C1008E
:1002A00000E005BD08EB06BD00E004BD04E005BDAF
:1002B00001E000936E0006E90093BF010FE0009398
:1002C000C0012A9B02C02A9801C02A9A40DF00E0A0
:1002D0000093BD0119C0DBD24091BD0150E008E0A0
:1002E00010E00E94360620E931E0200F311F60EA5D
:1002F00071E08901FB0148E050E00E947108009123
:10030000BD0103950093BD010091BD01023018F3BA
:100310002A9B02C02A9801C02A9A789404C02A9A7B
:100320000FE00093C0010091C1000F7E0093C10057
:1003300004E00093C101489903C004E00093C101A7
:100340000091C1010023B9F70091C1000061009341
:10035000C10004C00091C6000093C3010091C00019
:10036000102F17FDF7CF0091C000102F17FFFBCF04
:100370000091C100102F11FFD6CF0091C60000934D
:10038000C3010091C3010F700093C3010091C30129
:10039000053009F029C128980091A0011091A10110
:1003A00020E030E00E949A06280139010091A20164
:1003B0001091A30120E030E00E949A06A801B90143
:1003C000820193010E94C807E9EAF1E0408151816E
:1003D000628173810E943207E1EBF1E0408151813B
:1003E000628173810E94C8070A831B832C833D832B
:1003F0000091A4011091A50120E030E00E949A062E
:10040000280139010091A6011091A70120E030E0F8
:100410000E949A06A801B901820193010E94C807AF
:10042000EDEAF1E040815181628173810E943207DF
:10043000E5EBF1E040815181628173810E94C80740
:1004400048015901A401B5010A811B812C813D811C
:100450000E94C807280139014A815B816C817D8136
:10046000840195010E94C807680179018201930106
:100470000E9417060801190140E050E064E373E4AC
:10048000800191010E944F07080119014BED5FE0C7
:1004900069E470E4800191010E94C80728013901D4
:1004A000860197010E9417060801190140E050E0FB
:1004B00064E373E4800191010E944F070801190170
:1004C0004BED5FE069E470E4800191010E94C80790
:1004D000080119010A811B812C813D813F77A4010C
:1004E000B5017F770E945108B0F540E050E060E030
:1004F00070E0840195010E94690818F4C201D301DB
:1005000055C040E050E060E070E0840195010E9439
:10051000510800F540E050E060E070E00A811B8186
:100520002C813D810E94690858F440E050E064E36A
:1005300073E4820193010E94EE06C801D90136C01E
:1005400040E050E064E373EC820193010E94EE0608
:10055000C801D9012BC040E050E060E070E00A81A2
:100560001B812C813D810E94690858F4A001B101D2
:1005700000E010E024EB32E40E943207C801D90108
:1005800015C040E050E060E070E00A811B812C81E2
:100590003D810E94510850F4A001B10100E010E03B
:1005A00024EB32EC0E943207C801D90140E050E050
:1005B00060E07FE38C019D010E94EE060E949C0694
:1005C0009801332352F400E010E0021B130B088360
:1005D000198309810068098302C02883398308814F
:1005E00002D2098100D2289A04D02A9B98CE2A9858
:1005F00097CE4DD14091BE0150E008E010E00E943E
:10060000360620E931E0200F311F60EA71E08901F0
:10061000FB0148E050E00E94710800E010E020E09B
:1006200030E0E9EBF1E0008311832283338300E0C3
:100630000093BD0121C04091BD0150E008E010E0F1
:100640000E943606F801E057FE4F0081118120E03C
:1006500030E0E9EBF1E04081518162817381400F2C
:10066000511F621F731F4083518362837383009104
:10067000BD0103950093BD010091BD010230D8F288
:10068000E9EBF1E0008111812281338136952795D4
:1006900017950795E9EBF1E00083118322833383FB
:1006A000E9EBF1E0008111810093A0011093A10119
:1006B00000E010E020E030E0E9EBF1E0008311839E
:1006C0002283338300E00093BD0121C04091BD012E
:1006D00050E008E010E00E943606F801E057FE4FB7
:1006E0000281138120E030E0E9EBF1E040815181AB
:1006F00062817381400F511F621F731F40835183BA
:10070000628373830091BD0103950093BD01009145
:10071000BD010230D8F2E9EBF1E0008111812281C4
:1007200033813695279517950795E9EBF1E000831E
:10073000118322833383E9EBF1E00081118100937F
:10074000A2011093A30100E010E020E030E0E9EB0B
:10075000F1E0008311832283338300E00093BD0125
:1007600021C04091BD0150E008E010E00E94360633
:10077000F801E057FE4F0481158120E030E0E9EBFD
:10078000F1E04081518162817381400F511F621FEE
:10079000731F40835183628373830091BD0103956E
:1007A0000093BD010091BD010230D8F2E9EBF1E008
:1007B0000081118122813381369527951795079500
:1007C000E9EBF1E00083118322833383E9EBF1E06D
:1007D000008111810093A4011093A50100E010E0B5
:1007E00020E030E0E9EBF1E00083118322833383E2
:1007F00000E00093BD0121C04091BD0150E008E040
:1008000010E00E943606F801E057FE4F068117817E
:1008100020E030E0E9EBF1E04081518162817381B9
:10082000400F511F621F731F408351836283738384
:100830000091BD0103950093BD010091BD010230FF
:10084000D8F2E9EBF1E00081118122813381369504
:10085000279517950795E9EBF1E000831183228333
:100860003383E9EBF1E0008111810093A60110933D
:10087000A7010091BE0103950093BE010091BE0146
:10088000023019F400E00093BE0178940895F894C2
:1008900000E00093850000E0009384004B99FECFB8
:1008A0004B9BFECF02E0009381004B99FECF00E00E
:1008B00000938100009184000093A00100918500C5
:1008C0000093A10100E00093850000E00093840004
:1008D0004B99FECF4B9BFECF02E0009381004B99DA
:1008E000FECF4B9BFECF00E000938100009184007F
:1008F0000093A201009185000093A30100E0009302
:10090000850000E0009384004C99FECF4C9BFECF05
:1009100002E0009381004C99FECF00E0009381003B
:10092000009184000093A401009185000093A5012B
:1009300000E00093850000E0009384004C99FECF16
:100940004C9BFECF02E0009381004C99FECF4C9B64
:10095000FECF00E000938100009184000093A60187
:10096000009185000093A701089520E030E001E0A8
:100970000E945A0006EA1FE426E001501040204081
:10098000E1F7000008EA11E00E94720008958A93DE
:100990008AE5082F28D00091A001800F24D0009173
:1009A000A101800F20D00091A201800F1CD00091E6
:1009B000A301800F18D00091A401800F14D00091E2
:1009C000A501800F10D00091A601800F0CD00091DE
:1009D000A701800F08D00091A801800F04D0082F34
:1009E00002D089910895299A1091C0001064109343
:1009F000C0001091C1001E7F1093C1000093C6007B
:100A00000091C000102F16FFFBCF299808951A936C
:100A10000A931FB708EB06BD0091C101002329F01E
:100A20000091C1010A950093C1010091C0010F70AE
:100A30000023B9F00091BF01002331F00091BF0104
:100A40000A950093BF010DC00091C0010A95009363
:100A5000C00106E90093BF012A9B02C02A9801C089
:100A60002A9A1FBF0991199118954093C901509373
:100A7000CA012093C7013093C8010093C5011093A8
:100A8000C601462F01E010E00E943E060093C4011B
:100A90001DD00895E091C501F091C601008110912B
:100AA000C401012308950091C401E091C701F091B0
:100AB000C8011081102B10830091C401E091C9017D
:100AC000F091CA011081102B108308950091C40188
:100AD0000095E091C701F091C801108110231083A7
:100AE0000091C401E091C901F091CA011081102B5D
:100AF000108307E215E001501040E9F700C0000044
:100B00001FB7F8940091C4010095E091C901F091DC
:100B1000CA0120812023208302EF0A95F1F7E0919A
:100B2000C501F091C60100812091C40102231FBFBD
:100B300022E734E021503040E9F70000E091C501A0
:100B4000F091C60110812091C4011223112309F4F0
:100B500001E008951FB7F8942091C401E091C90104
:100B6000F091CA013081322B308323E02A95F1F7CE
:100B700000C0002351F02091C4012095E091C901EB
:100B8000F091CA0130813223308300C00000E0912F
:100B9000C501F091C60120813091C4012323222395
:100BA00009F400E025EA2A95F1F72091C401209587
:100BB000E091C901F091CA013081322330831FBF17
:100BC00008959A938A93802F98E0082F0170C2DFCE
:100BD0008695002309F080689A95092F902F0023AD
:100BE000A1F7082F8991999108950FEFEADF0895F1
:100BF0000E948808B02FC90169DF082F092B69F00E
:100C000005E5DFDFA8E0FC010081DBDF0196AA95A6
:100C10000A2FA02F0023B9F702C00CECD2DF0B2F54
:100C2000D0DFE4E00C94990800008895FECF40E006
:100C300050E060E070E00E94690810F40C94A40891
:100C40000E94A408305808950FE80DBF01E00EBFC0
:100C5000C0E5D1E00E94A208002311F00E942609FD
:100C60000E94F4000E9414060C941406149F102D88
:100C7000059F100D049F002D110D08954A951AF03F
:100C8000000F111FFBCF08954A952AF0369527953E
:100C900017950795F9CF08953095209510950195F2
:100CA0001F4F2F4F3F4F0895FF27112477FB660FEB
:100CB000771F089409F4771F679517F8EE2700242B
:100CC00037FB220F331F089409F4331F279507F8C9
:100CD000089527FD0EC0EE0F001F111F221F3A9529
:100CE0003230B8F7332319F427FD31E002C027FF73
:100CF00030E0E03821F400FF08940EF488940F4FA0
:100D00001F4F2F4F3F4F323038F4332319F427FD54
:100D100031E002C027FF30E03F3F29F0220F000CF6
:100D2000379527950895A7C0E02F012F122F232F65
:100D30003EE9D6CF0024F8CFC1DF432F4F5748F00C
:100D40004F3148F007FC91C03FE72FEF1FEF0FEF47
:100D5000089533278CC0322F212F102F0E2F4F5183
:100D600041950E94440607FE08950C944C06F90133
:100D7000EE0FFF1F37FBFF3F31F0EF2BE12BE02B96
:100D80008894B8940895E02BE12B21F0089498946E
:100D9000B89408959894889438940895FB01EE0FC0
:100DA000FF1F77FBFF3F31F0EF2BE52BE42B8894FF
:100DB000B8940895E42BE52B69F3E8CFEFDF68F0F2
:100DC00021F43723262F8A010895372FFBCFE6DF42
:100DD00020F00BF008957327EAF751C0C8DFE8F35D
:100DE000B3F361F3DBDFC8F383F3A1F35DDF4017F7
:100DF00051076207730731F4011411F10024E894DC
:100E000088942BC078F0332E372F732D322E262F57
:100E1000632D312E152F532D302E042F432D302CC2
:100E2000012C132C371739F0669557954795F79590
:100E3000E0407395F7CFE7FBEE0FE0E010246AF097
:100E4000EF0F041F151F261F60F4279517950795B0
:100E5000E79508F46894339543CFEF0B040B150B1B
:100E6000260B3ECFE0E87E27B9CF302D3078222701
:100E70001127002708953FE7302920E8F9CF3FEFF9
:100E80002FEFF6CF8BDFD8F3D1F3707837270895A3
:100E900085DFA8F3A3F3F9CF3078372793CF67DF47
:100EA00070F383F3A9F37ADF50F3B3F3A9F3FCDE15
:100EB0000124E8943F57E040370FEF1F12F0D9F6B6
:100EC00003C03A3E90F26894E0E00A92AA933A9303
:100ED000AA27332422243327049FF001059FF00D15
:100EE000712D731F149FF00D711D221C069F700D34
:100EF000211C331C159F700D211C331E249F700D67
:100F0000211C331E169F200C311CAA1F259F200C6C
:100F1000311CA31F269F300CA11D39915EF433951F
:100F2000A695379427947795F795E79533953130C3
:100F3000BCF316C0AA2322F0332351F4339510C01A
:100F4000339571F4A991099096CFA7FD09C03A9500
:100F5000EE0FFF1F771F221C331CAA1F3230A8F789
:100F6000E894FE2B09F068942A2F8101E72FA991BC
:100F70000990BFCE13DF10F00BF087CF80CF0EDFCC
:100F8000E9F3E0F3032E072670CF032E072673CF75
:100F9000EEDEA0F37BF399F301DF80F39BF3A9F37B
:100FA00083DE012427FD06C0000F111F221F3150D0
:100FB000E040F8CF67FD06C0440F551F661F715013
:100FC000F040F8CFE894371BEF0B3158EF4F2AF081
:100FD000EE23E9F63F3FD9F203C03A3EA8F2689407
:100FE000E0E0F0E01124139440175107620738F055
:100FF000315008F46894000F111F221FEE1F041BCC
:10100000150B260BEF0B000F111F221FEE1FAA93CB
:1010100079E17A95AAF0041715072607EF0730F053
:10102000041B150B260BEF0B089401C08894111CB0
:10103000221C331CAA1F000F111F221FEE1FE9CF15
:10104000F0F9E894E22BE12BE02B09F06894A695E7
:10105000379427941794E79508F468947395B9F337
:10106000A991332311F0F0FF09C036942794179407
:10107000E79508F4689433953130BCF3012D122DB7
:10108000232D37CE8BCE98940895189408956FDE53
:10109000D0F3C1F383DEB8F304171507260737072B
:1010A00008957CDEA0F063DE90F029F0E32FE727BF
:1010B0003AF47317089572DE51F04EF008940895D3
:1010C000041715072607370719F016F4B8F78894A0
:1010D000089564DEE0F34BDED0F3E7DFC0F308945D
:1010E0000895AF93BF93D80101900D9241505040A5
:1010F000D9F7BF91AF910895FA92EA92DA92CA9223
:10110000BA92AA929A928A927A926A925A924A923F
:10111000BA93AA939A938A930895FF84EE84DD8408
:10112000CC84BB84AA84998488847F806E805D800F
:101130004C80BB81AA8199818881F0E0EC0FFD1F72
:10114000EF01089501E008950E947C08C801D901CB
:10115000BF7741E050E060E87FE33B2F0E945108F9
:1011600070F440E00E94470829F40BED1FE029E4E9
:101170003FE350C0CC24DD24EE24FF241CC00BED43
:10118000C02E0FE0D02E09E4E02EF72E40E07FEBDA
:10119000082F48D02801390140E050E060E87FE3A3
:1011A0008C019D013FD0A801B901820193010E94E9
:1011B000C807C801D901AC01BD018C019D012DD02A
:1011C0002801390144E25FEF6BE27CEB26D048E86E
:1011D00054E466EA7EE328D048E150EC6FE370E423
:1011E00023D045EB1CD0480159014AEE54EB66E888
:1011F00070E48201930118D046EB11D0A801B90127
:10120000840195010E94C807AC01BD0106D0A6016A
:10121000B70108D0E0E10C948D080C944F075DEF06
:1012200068E670E40C94EE06FDDFA201B301F5CF91
:1012300020E006D0E9F70895259102D0E9F7089556
:101240002D9301501040202F212B089580E892E12A
:10125000FC0105911491FC013296A591B491FC0119
:10126000349625913491422F432B19F0F901E4DF94
:1012700001C0DEDF069612E18638910748F3089533
:061280003B00900100009C
:00000001FF
:00000001FF
