:10000300E4F5A875D701D2C075C07275984075899B
:100013000175CBFF75CAE575CDFF75CCE575C830A5
:10002300D2CA120415A9077815760008760008A627
:100033000178158603080806E6188602700106147F
:10004300F91203BCF50CFF7828760008A60778158B
:100053008603080806E618860270010614F91203DF
:10006300BCF50CFE7829E426F618EE36F6781586EC
:1000730003080806E618860270010614F91203BC89
:10008300F50CFF782A760008A6077815860308087A
:1000930006E618860270010614F91203BCF50CFE7D
:1000A300782BE426F618EE36F6781586030808064C
:1000B300E618860270010614F91203BCF50CFF78EA
:1000C3002C760008A60778158603080806E6188626
:1000D3000270010614F91203BCF50CFE782DE42618
:1000E300F618EE36F678158603080806E618860233
:1000F30070010614F91203BCF50CFF782E76000884
:10010300A60778158603080806E618860270010616
:1001130014F91203BCF50CFE782FE426F618EE361C
:10012300F6750C01E50C75F008A4FF2410F9E4FA48
:10013300FBC00174182FF9E4A801FCFDD001FE7F78
:1001430008120396D50CDD78187C007D007B007ABD
:100153000079287E007F08120396E4F50BF50AF573
:1001630009F508F50CE50C75F008A42418F8E6FE6B
:1001730008E6FFE4FCFDE50B2FF50BE50A3EF50A67
:10018300ED3509F509EC3508F508050CE50CB40265
:10019300D4AF0BAE0AAD09AC0878011204028F0B81
:1001A3008E0A8D098C08E47828A60608A607F50BA5
:1001B300F50AF509F508F50CE50C75F008A4241A01
:1001C300F8E6FE08E6FFE4FCFDE50B2FF50BE50A78
:1001D3003EF50AED3509F509EC3508F508050CE59A
:1001E3000CB402D4AF0BAE0AAD09AC08780112040B
:1001F300028F0B8E0A8D098C08E4782AA60608A6BE
:1002030007F50BF50AF509F508F50CE50C75F0088B
:10021300A4241CF8E6FE08E6FFE4FCFDE50B2FF53D
:100223000BE50A3EF50AED3509F509EC3508F50845
:10023300050CE50CB402D4AF0BAE0AAD09AC0878DB
:10024300011204028F0B8E0A8D098C08E4782CA608
:100253000608A607F50BF50AF509F508F50CE50CF4
:1002630075F008A4241EF8E6FE08E6FFE4FCFDE5AD
:100273000B2FF50BE50A3EF50AED3509F509EC35CB
:1002830008F508050CE50CB402D4AF0BAE0AAD09B2
:10029300AC0878011204028F0B8E0A8D098C08E4D6
:1002A300782EA60608A607FB7A0079287815F608A3
:1002B300A60208A60112049DC2AFD2C0D2C1D2AF1A
:0302C30002002511
:06049D008B0D8A0E890F91
:1004A300E4F51075115AAF111204F0E4F512E512D8
:1004B300C394085028AB0D7E00E50F2512F9EE35E5
:1004C3000EFA9000011204E5AB0DAA0EA90F8512D6
:1004D300827583001204E50512051280D1AF110263
:0204E30004F023
:0B04E5001203D5F5102511F511AF1022
:0804F0008F993099FDC2992299
:030000000204F8FF
:0604F80075812F020003D4
:10041500758C00758A002090FD3090FDD28C20905F
:10042500FDC28CE58AF8E58CF9758C00758A00307B
:1004350090FDD28C2090FD3090FDC28CE58AFAE5C6
:100445008CFB758C00758A002091FD3091FDD28C56
:100455002091FDC28CE58AFCE58CFD758C00758AC2
:10046500003091FDD28C2091FD3091FDC28CE58A42
:10047500FEE58CFFE8F58AE9F58C780DE58AF60846
:10048500E58CF608EAF608EBF608ECF608EDF60852
:08049500EEF608EFF67F0D22E0
:1002C600E709F608DFFA8046E709F208DFFA803E1A
:1002D60088828C83E709F0A3DFFA8032E309F60807
:1002E600DFFA8078E309F208DFFA807088828C836F
:1002F600E309F0A3DFFA806489828A83E0A3F60823
:10030600DFFA805889828A83E0A3F208DFFA804CFC
:1003160080D280FA80C680D4806980F280338010D3
:1003260080A680EA809A80A880DA80E280CA80333C
:1003360089828A83ECFAE493A3C8C582C8CCC583B4
:10034600CCF0A3C8C582C8CCC583CCDFE9DEE78084
:100356000D89828A83E493A3F608DFF9ECFAA9F003
:10036600EDFB2289828A83ECFAE0A3C8C582C8CC59
:10037600C583CCF0A3C8C582C8CCC583CCDFEADE72
:10038600E880DB89828A83E493A3F208DFF980CCD4
:1003960088F0EF60010E4E60C388F0ED2402B404CD
:1003A6000050B9F582EB2402B4040050AF23234574
:0603B60082239003167380
:1003BC00BB010689828A83E0225002E722BBFE023F
:0903CC00E32289828A83E4932272
:1003D500BB010CE58229F582E5833AF583E02250DD
:1003E50006E92582F8E622BBFE06E92582F8E22227
:0D03F500E58229F582E5833AF583E4932241
:10040200E8600FECC313FCED13FDEE13FEEF13FFD8
:03041200D8F122FC
:00000001FF
