:10000300E4F5A875D701D2C075C07275984075899B
:100013000175CBFF75CAE575CDFF75CCE575C830A5
:10002300D2CAF513F512F511F510F508F509F51710
:10003300F516F515F514F50AF50BF51BF51AF51973
:10004300F518F50CF50DF51FF51EF51DF51CF50E50
:10005300F50FF531E53175F008A42433F8E4F6081B
:10006300F6E53175F008A42435F8E4F608F6E53131
:1000730075F008A42437F8E4F608F6E53175F008BE
:10008300A42439F8E4F608F60531E531B419C512AC
:100093000345E50975F008A42433F8E6FE08E6FBFA
:1000A300AA06C3E5139BF513E5129AF512E511941D
:1000B30000F511E5109400F510E4FCFDE51325218E
:1000C300F513E5123520F512ED3511F511EC351068
:1000D300F510E50975F008A42433F8A62008A62135
:1000E3000509E50970020508641945087004F50857
:1000F300F509E47B19FAF9F8AF13AE12AD11AC10A0
:100103001202B38E288F29E50B75F008A42435F865
:10011300E6FE08E6FBAA06C3E5179BF517E5169A64
:10012300F516E5159400F515E5149400F514E4FCB3
:10013300FDE5172523F517E5163522F516ED3515DB
:10014300F515EC3514F514E50B75F008A42435F812
:10015300A62208A623050BE50B7002050A641945C0
:100163000A7004F50AF50BE47B19FAF9F8AF17AE38
:1001730016AD15AC141202B38E2A8F2BE50D75F054
:1001830008A42437F8E6FE08E6FBAA06C3E51B9B92
:10019300F51BE51A9AF51AE5199400F519E5189473
:1001A30000F518E4FCFDE51B2525F51BE51A3524B0
:1001B300F51AED3519F519EC3518F518E50D75F047
:1001C30008A42437F8A62408A625050DE50D70021A
:1001D300050C6419450C7004F50CF50DE47B19FA54
:1001E300F9F8AF1BAE1AAD19AC181202B38E2C8FEF
:1001F3002DE50F75F008A42439F8E6FE08E6FBAAFE
:1002030006C3E51F9BF51FE51E9AF51EE51D940029
:10021300F51DE51C9400F51CE4FCFDE51F2527F501
:100223001FE51E3526F51EED351DF51DEC351CF5B8
:100233001CE50F75F008A42439F8A62608A627059F
:100243000FE50F7002050E6419450E7004F50EF5E7
:100253000FE47B19FAF9F8AF1FAE1EAD1DAC1C12EB
:1002630002B38E2E8F2F1203B1C2AFD2C0D2C1D22E
:04027300AF02009244
:10034500E4F58CF58A2090FD3090FDD28C2090FD4F
:10035500C28C858C20858A21E4F58CF58A2090FD58
:100365003090FDD28C2090FD3090FDC28C858C2282
:10037500858A23E4F58CF58A2091FD3091FDD28C98
:100385002091FDC28C858C24858A25E4F58CF58A1F
:100395002091FD3091FDD28C2091FD3091FDC28CD4
:0C03A500858C26858A27E4F58CF58A22D9
:1003B10075325AAF321203EBAF291203E6AF28129E
:1003C10003E6AF2B1203E6AF2A1203E6AF2D1203A9
:1003D100E6AF2C1203E6AF2F1203E6AF2E1203E6AF
:0503E100AF320203EB46
:0503E600EF2532F532A5
:0803EB008F993099FDC299229F
:030000000203F305
:0603F3007581FA0200030F
:1002770075F008758200EF2FFFEE33FECD33CDCC3E
:1002870033CCC58233C5829BED9AEC99E5829840C1
:100297000CF582EE9BFEED9AFDEC99FC0FD5F0D69E
:1002A700E4CEFBE4CDFAE4CCF9A88222B800C1B9C8
:1002B7000059BA002DEC8BF084CFCECDFCE5F0CB06
:1002C700F97818EF2FFFEE33FEED33FDEC33FCEB3F
:1002D70033FB10D703994004EB99FB0FD8E5E4F9FA
:1002E700FA227818EF2FFFEE33FEED33FDEC33FCE7
:1002F700C933C910D7059BE99A4007EC9BFCE99ADB
:10030700F90FD8E0E4C9FAE4CCFB2275F010EF2F1F
:10031700FFEE33FEED33FDCC33CCC833C810D7071F
:100327009BEC9AE899400AED9BFDEC9AFCE899F85A
:0E0337000FD5F0DAE4CDFBE4CCFAE4C8F922ED
:00000001FF
