:020000020000FC
:020000001FC01F
:100040000FEF0DBF04E00EBF00E00093C00000936F
:10005000C10006E00093C20007E40093C40000E082
:100060000093C50008E00093C1000FEF0BB902EC4C
:100070000AB905E005B907E004B900E00093810082
:10008000009385000093840012E04B99FECF4B9BB8
:10009000FECF109381004B99FECF0093810000901A
:1000A00084001090850000938500009384004B9994
:1000B000FECF4B9BFECF109381004B99FECF4B9B05
:1000C000FECF009381002090840030908500009343
:1000D0008500009384004C99FECF4C9BFECF10937B
:1000E00081004C99FECF0093810040908400509095
:1000F000850000938500009384004C99FECF4C9BB3
:10010000FECF109381004C99FECF4C9BFECF009305
:10011000810060908400709085000AE5102F0E9495
:10012000B200002D0E94B900012D0E94B900022DDD
:100130000E94B900032D0E94B900042D0E94B9004D
:10014000052D0E94B900062D0E94B900072D0E94BE
:10015000B200010F0E94B2001A9902C02A9A8DCFF4
:100160002A988BCF2091C00025FFFCCF0093C600BA
:0A01700008950E94B200100F0895D8
:00000001FF
