:03000000020100FA
:1001000075A80075D701D2C075C072759840758901
:100110000175CBFF75CAE575CDFF75CCE575C830A7
:10012000D2CA758C00758A002090FD3090FDD28C6B
:100130002090FDC28CE58AF8E58CF9758C00758AF3
:10014000002090FD3090FDD28C2090FD3090FDC2BB
:100150008CE58AFAE58CFB758C00758A002091FD90
:100160003091FDD28C2091FDC28CE58AFCE58CFD9E
:10017000758C00758A002090FD3091FDD28C209105
:10018000FD3091FDC28CE58AFEE58CFF745AF5F0D6
:1001900031B9E831C1E931C1EA31C1EB31C1EC31EA
:1001A000C1ED31C1EE31C1EF31B925F031B9C2AF86
:1001B000D2C0D2C1D2AF020122F5993099FDC299C5
:0801C0002231B925F0F5F0220F
:00000001FF
