:100000000C947902189518951895189518951895C7
:100010001895189518951895189518951895189578
:100020001895189518951895189518951895189568
:100030001895189518951895189518951895189558
:100040000C94990118951895189518951895189568
:100050001895189518951895189518951895189538
:100060001895189518951895415335313330202D32
:1000700020636F6E76657274696F6E206F662054B0
:1000800069636B7320746F20416E676C6520616ECD
:1000900064204D756C74697475726E008A93A895AE
:1000A0000091600008610093600008E20093600026
:1000B0000AE305B90AE204B90FEF0BB906EB0AB976
:1000C0004B9B04C001E00093D90103C000E0009302
:1000D000D90101E00093D70100E00093D801A89571
:1000E00078940091D901002309F499C000E00093AD
:1000F000C10000E00093C00006E00093C20007E4E6
:100100000093C40000E00093C50008E00093C10024
:1001100000E005BD08EB06BD00E004BD04E005BD40
:1001200001E000936E0008E610E00E9463020DE01B
:100130000E94D0010AE00E94D00100E911E00E9473
:10014000E2010DE00E94D0010AE00E94D00100917E
:10015000D7010023E1F701E00093D7015C9800E0AC
:1001600010E004D10093CD0100E010E0FFD0009337
:10017000CC0100E010E0FAD00093CB014BE0EBECB7
:10018000F1E000811181228133810E94B702EFECFE
:10019000F1E0008311832283338305EB11E00E9499
:1001A000E2010091D0010E94EF010091CF010E9475
:1001B000EF0105EC11E00E94E201EFECF1E00081BB
:1001C0001181228133810E940D0345E256E061E6F0
:1001D0007FE30E94BF030E940F0320E030E0E3EDC5
:1001E000F1E00083118322833383E3EDF1E00081AA
:1001F0001181228133810E94F90107EC11E00E94F4
:10020000E2010DE00E94D0010AE00E94D001299B8A
:1002100002C0299801C0299A5C9AA89598CF00E05D
:100220000093C10000E00093C00006E00093C2000C
:100230000FE10093C40001E00093C5000CE00093BF
:10024000C10000E005BD08EB06BD00E004BD04E010
:1002500005BD01E000936E0078940091C1000F7E0F
:100260000093C10004E00093D701489903C004E063
:100270000093D7010091D7010023B9F70091C10085
:1002800000610093C1000091C000102F17FFFBCF49
:100290000091C100102F11FFE0CF0091C600802F08
:1002A0008F708430D1F608E70093D80129985C98C4
:1002B00000E010E05BD00093CD0100E010E056D0EC
:1002C0000093CC0100E010E051D00093CB014BE053
:1002D000EBECF1E000811181228133810E94B702B1
:1002E000EFECF1E00083118322833383EFECF1E044
:1002F00000811181228133810E940D0345E256E085
:1003000061E67FE30E94BF030E940F0320E030E01C
:10031000E3EDF1E000831183228333830091D40164
:100320000E94D0010091D3010E94D0015C9AA8954F
:1003300094CF1A930A931FB708EB06BD0091D7011B
:10034000002329F00091D7010A950093D70100916D
:10035000D801002331F00091D8010A950093D8010B
:1003600001C0299A1FBF099119911895A80100E0B1
:1003700010E05F9820E0283090F4342F37FF02C05F
:100380005D9A01C05D985F9A000F111F4E9B02C0DD
:100390000F5F1F4F5F98440F551F2395ECCF0895B3
:1003A0001091C00010641093C0001091C1001E7F16
:1003B0001093C1000093C6001091C000212F26FFAA
:1003C000FBCF0895BA93AA93D8010C91002321F092
:1003D0000C91E6DF1196F9CFA991B99108958A930E
:1003E000802F082F02950F7011D0082F0FD0899100
:1003F00008959A938A932897C8019E018C0116D07C
:100400008E01E0DF28968991999108959A938A93B5
:10041000902F092F0F70802F8A3010F0895C01C057
:10042000805D082FBDDF8991999108950E942B046A
:10043000D801C9019D018C0103D0E4E00C94310482
:100440000E942B04D801C901992332F4919581951A
:1004500090400DE20C9302C00BE20C9348EE53E087
:100460008C010E94A302005DFD01018348EE53E070
:100470008C010E94A3028A0144E650E00E94A3027C
:10048000005DFD01028348EE53E08C010E94A3024F
:100490008A0144E650E00E94A3028A014AE050E04B
:1004A0000E94A302005DFD0103834AE050E08C013D
:1004B0000E94A302405DFD01448300E0FD0105832D
:1004C000E4E00C9431040E942A04C801A0E0B0E0EA
:1004D000FC01EA0FFB1F0491A395402E002319F0A5
:1004E000042D5EDFF4CFE5E00C9430040000889525
:1004F000FECF0FE80DBF01E00EBFC0E5D1E00E94C6
:100500003A04002311F00E944A040E944E000E9407
:1005100076020C94760200241124EFE0001F111FD4
:10052000001C111C0416150610F0041A150AEA9591
:10053000AAF7001F111FA00100951095089551956D
:10054000419550400895FF27552312F4F160F7DFDD
:10055000112312F4F09507D00E948B02F0FD03D016
:10056000F1FDEDCF089511950195104008954A953C
:100570002AF03695279517950795F9CF0895309568
:100580002095109501951F4F2F4F3F4F0895FF273E
:10059000112477FB660F771F089409F4771F67957E
:1005A00017F8EE27002437FB220F331F089409F4B5
:1005B000331F279507F8089527FD0EC0EE0F001F83
:1005C000111F221F3A953230B8F7332319F427FD53
:1005D00031E002C027FF30E0E03821F400FF08944A
:1005E0000EF488940F4F1F4F2F4F3F4F323038F487
:1005F000332319F427FD31E002C027FF30E03F3FED
:1006000029F0220F000C379527950895A4C0E02FFC
:10061000012F122F232F3EE9D6CF0024F8CFC1DFC0
:10062000432F4F5748F04F3148F007FC8EC03FE74B
:100630002FEF1FEF0FEF0895332789C0322F212F9F
:10064000102F0E2F4F5141950E94B70207FE0895BB
:100650000C94BF02F901EE0FFF1F37FBFF3F31F093
:10066000EF2BE12BE02B8894B8940895E02BE12B3D
:1006700021F008949894B8940895989488943894A4
:100680000895FB01EE0FFF1F77FBFF3F31F0EF2BCB
:10069000E52BE42B8894B8940895E42BE52B69F3BB
:1006A000E8CFEFDF68F021F43723262F8A01089581
:1006B000372FFBCFE6DF20F00BF008957327EAF722
:1006C0004EC0C8DFE8F3B3F361F3DBDFC8F383F3B5
:1006D000A1F35DDF401751076207730731F401147E
:1006E00011F10024E89488942BC078F0332E372F32
:1006F000732D322E262F632D312E152F532D302E94
:10070000042F432D302C012C132C371739F066950C
:1007100057954795F795E0407395F7CFE7FBEE0FB8
:10072000E0E010246AF0EF0F041F151F261F60F48D
:10073000279517950795E79508F46894339543CF67
:10074000EF0B040B150B260B3ECF302D30782227F4
:100750001127002708953FE7302920E8F9CF3FEF20
:100760002FEFF6CF8EDFD8F3D1F3707837270895C7
:1007700088DFA8F3A3F3F9CF3078372796CF6ADF65
:1007800070F383F3A9F37DDF50F3B3F3A9F3FFDE36
:100790000124E8943F57E040370FEF1F12F0D9F6DD
:1007A00003C03A3E90F26894E0E00A92AA933A932A
:1007B000AA27332422243327049FF001059FF00D3C
:1007C000712D731F149FF00D711D221C069F700D5B
:1007D000211C331C159F700D211C331E249F700D8E
:1007E000211C331E169F200C311CAA1F259F200C94
:1007F000311CA31F269F300CA11D39915EF4339547
:10080000A695379427947795F795E79533953130EA
:10081000BCF316C0AA2322F0332351F4339510C041
:10082000339571F4A991099096CFA7FD09C03A9527
:10083000EE0FFF1F771F221C331CAA1F3230A8F7B0
:10084000E894FE2B09F068942A2F8101E72FA991E3
:100850000990C2CE4A92BA93AA939A938A93089522
:100860004C80BB81AA8199818881F0E0EC0FFD1F4B
:10087000EF01089501E0089520E006D0E9F708951A
:10088000259102D0E9F708952D9301501040202FB3
:10089000212B089588EC98E0FC0105911491FC014E
:1008A0003296A591B491FC01349625913491422F52
:1008B000432B19F0F901E4DF01C0DEDF069618E0F2
:1008C000843D910748F308953B009001D4080F0040
:1008D000CB0100002D2D2D2D2D2D2D2D2D2D2D2D30
:1008E0002D2D2D2D2D2D2D2D2D2D2D2D2D2D2D2D38
:1008F0002D2D2D2D2D2D2D2D005469636B2F416E27
:0F090000676C65203D203078002F00603B2000A1
:00000001FF
:00000001FF
