:100000000C941E061895189518951895189518951E
:100010001895189518951895189518951895189578
:100020001895189518951895189518951895189568
:100030001895189518951895189518951895189558
:100040000C94E90418951895189518951895189515
:100050001895189518951895189518951895189538
:100060001895189518951895192E282EA80160E056
:1000700080E090E018C0FA01E80FF91F008018E056
:10008000062F0170702D717007270170013011F477
:1000900078E167276695013009F4606806941A953F
:1000A000113070F701968217930729F7062F822DDA
:1000B000912D08950E94B408A02FC9010E946005E7
:1000C0000E944405002351F09C0104E40E94F205C3
:1000D000A13011F00E944D0500E001C002E0E3E014
:1000E0000C94C5080E94B3082997D80120E030E09D
:1000F0000EEB0E94F20580E008C00E94EF05FE01B1
:1001000090E0E80FF91F008383958930B0F329E070
:1001100030E08E010E943400002311F003E010C093
:10012000088102950F700F7089818295807F807F92
:10013000082B07FB16F40F7701C000680C9300E052
:100140002996E4E00C94C4080E94AB080AEF1FE073
:100150000093A9011093AA0109E311E10093AB01F7
:100160001093AC014CED5BE027E134E1A9E2BDE086
:100170008FE495E14424552400E4602E0FEB702EAB
:100180000DEC802E0CEC902E0CEBA02E00E4B02E8B
:1001900000EA10E00093AD011093AE01241B350B73
:1001A0008901980142E050E089010E945606212F02
:1001B000220F220B322F0E94BA06EFEAF1E00083F1
:1001C0001183228333838A1B9B0B8C0142E050E016
:1001D0000E945606212F220F220B322F0E94BA06B0
:1001E000E3EBF1E00083118322833383A201B301A7
:1001F000840195010E945D073F7740E050E06CED7F
:1002000072E40E94F307E7EBF1E00083118322839D
:100210003383ECE00C94BC080E94A70826970BE7F8
:100220000BB902EC0AB905E005B907E004B94D9B2A
:1002300004C001E00093C40103C000E00093C401C6
:1002400062E04AE250E02BE230E009E210E00E9476
:100250002F0500E005BD08EB06BD00E004BD04E08D
:1002600005BD01E000936E0000E00093C20108E0CC
:1002700017E00093C6011093C70101E00093C3018A
:1002800000E00093C0012A9B02C02A9801C02A9A6C
:1002900078940091C401002359F500E00093C10057
:1002A00000E00093C00006E00093C20007E4009362
:1002B000C40000E00093C50008E00093C10000E026
:1002C0000093810000E00093850000E0009384002B
:1002D00001C02A9A0091C3010023E1F701E00093D5
:1002E000C3011ED211D335D32A9BF3CF2A98F2CF64
:1002F00000E00093C10000E00093C00006E000931E
:10030000C2000FE10093C40001E00093C5000CE0BF
:100310000093C10019DF00E00093BF0119C0BCD2F7
:100320004091BF0150E008E010E00E94300620E953
:1003300031E0200F311F60EA71E08901FB0148E0E4
:1003400050E00E949C080091BF0103950093BF01FB
:100350000091BF01023018F3D7D206E90093C10122
:100360000FE00093C2012A9B02C02A9803C02A9A78
:1003700001C02A9A0091C1000F7E0093C10004E0E1
:100380000093C301489903C004E00093C3010091A6
:10039000C3010023B9F70091C10000610093C100BF
:1003A00004C00091C6000093C5010091C000102F49
:1003B00017FDF7CF0091C000102F17FFFBCF009162
:1003C000C100102F11FFD6CF0091C6000093C501C8
:1003D0000091C5010F700093C5010091C501053062
:1003E00009F095C128980091A0011091A10120E089
:1003F00030E00E94C506280139010091A901109141
:10040000AA01212F220F220B322F0E94BA06A80127
:10041000B901820193010E945D07EFEAF1E040819A
:100420005181628173810E94F3070A831B832C83AD
:100430003D830091A4011091A50120E030E00E94CD
:10044000C506280139010091AB011091AC01212FA3
:10045000220F220B322F0E94BA06A801B901820195
:1004600093010E945D07E3EBF1E0408151816281DD
:1004700073810E94F30748015901A401B5010A8163
:100480001B812C813D810E94F307280139014A819B
:100490005B816C817D81840195010E94F307680175
:1004A0007901820193010E9411060801190140E0BF
:1004B00050E064E373E4800191010E947A0708012F
:1004C00019014BED5FE069E470E4800191010E9445
:1004D000F30728013901860197010E9411060801DE
:1004E000190140E050E064E373E4800191010E944F
:1004F0007A07080119014BED5FE069E470E48001BF
:1005000091010E94F307080119010A811B812C81C6
:100510003D813F77A401B5017F770E947C08B0F54B
:1005200040E050E060E070E0840195010E94940892
:1005300018F4C201D30155C040E050E060E070E023
:10054000840195010E947C0800F540E050E060E0E5
:1005500070E00A811B812C813D810E94940858F42F
:1005600040E050E064E373E4820193010E941907C4
:10057000C801D90136C040E050E064E373EC820169
:1005800093010E941907C801D9012BC040E050E037
:1005900060E070E00A811B812C813D810E949408FB
:1005A00058F4A001B10100E010E024EB32E40E9415
:1005B0005D07C801D90115C040E050E060E070E07F
:1005C0000A811B812C813D810E947C0850F4A0018E
:1005D000B10100E010E024EB32EC0E945D07C8019D
:1005E000D9014FEF5FEF63E373EC8C019D010E9433
:1005F0009408A0F441E050E064EB72E48C019D01AA
:100600000E947C0858F440E050E064EB72E48C01F6
:100610009D010E941907C801D9010AC040E050E0BD
:1006200067E873EC8C019D010E941907C801D9018C
:100630000091A80110E02091AD013091AE010217A8
:100640001307F4F40091AD011091AE012091A801BF
:1006500030E0021B130B212F220F220B322F0E949E
:10066000BA06E7EBF1E040815181628173810E941B
:100670007A07AC01BD010E941907C801D90129C040
:100680000091A80110E02091AD013091AE01021758
:100690001307FCF00091A80110E02091AD0130910A
:1006A000AE01021B130B212F220F220B322F0E94AF
:1006B000BA06E7EBF1E040815181628173810E94CB
:1006C0007A07A801B9018C019D010E945D07C8014C
:1006D000D90140E050E060E07FE38C019D010E9481
:1006E00019070E94C7069801332352F400E010E076
:1006F000021B130B0883198309810068098302C058
:1007000028833983088151D109814FD1289A08D093
:10071000FBD00FE00093C2012A9B2BCE2A982ACE51
:100720008A938FB7F894B8D04091C00150E008E0A8
:1007300010E00E94300620E931E0200F311F60EA0E
:1007400071E08901FB0148E050E00E949C0800E054
:1007500010E020E030E0EBEBF1E000831183228336
:10076000338300E00093BF0121C04091BF0150E0FE
:1007700008E010E00E943006F801E057FE4F0081CB
:10078000118120E030E0EBEBF1E0408151816281AA
:100790007381400F511F621F731F40835183628317
:1007A00073830091BF0103950093BF010091BF01C6
:1007B0000230D8F2EBEBF1E000811181228133812C
:1007C0003695279517950795EBEBF1E0008311839C
:1007D00022833383EBEBF1E0008111810093A001D0
:1007E0001093A10100E010E020E030E0EBEBF1E03D
:1007F000008311832283338300E00093BF0121C073
:100800004091BF0150E008E010E00E943006F8017E
:10081000E057FE4F0481158120E030E0EBEBF1E082
:100820004081518162817381400F511F621F731F8C
:1008300040835183628373830091BF0103950093CA
:10084000BF010091BF010230D8F2EBEBF1E0008173
:100850001181228133813695279517950795EBEB0A
:10086000F1E00083118322833383EBEBF1E000811D
:1008700011810093A4011093A5010091C00103957B
:100880000093C0010091C001023019F400E0009310
:10089000C0018FBF899108951FB7F89400E00093BD
:1008A000850000E0009384004B99FECF4B9BFECF68
:1008B00002E0009381004B99FECF00E0009381009D
:1008C000009184000093A001009185000093A10194
:1008D00000E00093850000E0009384004C99FECF77
:1008E0004C9BFECF02E0009381004C99FECF00E0CC
:1008F00000938100009184000093A4010091850081
:100900000093A5011FBF08958A930091C60110911D
:10091000C701083027E01207D0F08FB7F89420E025
:1009200030E001E00E945A0006EA1FE426E0015090
:1009300010402040E1F7000008EA11E00E94720038
:1009400000E010E00093C6011093C7018FBF8991AA
:1009500008958A938AE5082F28D00091A001800F7E
:1009600024D00091A101800F20D00091A001800F20
:100970001CD00091A101800F18D00091A401800F1C
:1009800014D00091A501800F10D00091A401800F18
:100990000CD00091A501800F08D00091A801800F14
:1009A00004D0082F02D089910895299A1091C0008F
:1009B00010641093C0001091C1001E7F1093C100FD
:1009C0000093C6000091C000102F16FFFBCF29989E
:1009D0000895FA93EA933A932A931A930A933FB7A6
:1009E00008EB06BD0091C301002329F00091C3016B
:1009F0000A950093C3010091C2010F700023B9F062
:100A00000091C101002331F00091C1010A950093CA
:100A1000C1010DC00091C2010A950093C20106E90F
:100A20000093C1012A9B02C02A9801C02A9A009112
:100A3000C6011091C701083027E0120740F4E6EC28
:100A4000F1E0008111810F5F1F4F008311833FBFD1
:100A50000991199129913991E991F991189540934A
:100A6000CD015093CE012093CB013093CC01009364
:100A7000C9011093CA01462F01E010E00E94380618
:100A80000093C8011DD00895E091C901F091CA01F9
:100A900000811091C801012308950091C801E091DF
:100AA000CB01F091CC011081102B10830091C80173
:100AB000E091CD01F091CE011081102B10830895AB
:100AC0000091C8010095E091CB01F091CC0110811B
:100AD000102310830091C801E091CD01F091CE0167
:100AE0001081102B108307E215E001501040E9F748
:100AF00000C000001FB7F8940091C8010095E09174
:100B0000CD01F091CE0120812023208302EF0A95B0
:100B1000F1F7E091C901F091CA0100812091C8016B
:100B200002231FBF22E734E021503040E9F70000E4
:100B3000E091C901F091CA0110812091C8011223EE
:100B4000112309F401E008951FB7F8942091C8011A
:100B5000E091CD01F091CE013081322B308323E042
:100B60002A95F1F700C0002351F02091C80120958B
:100B7000E091CD01F091CE0130813223308300C06D
:100B80000000E091C901F091CA0120813091C801B3
:100B90002323222309F400E025EA2A95F1F7209186
:100BA000C8012095E091CD01F091CE013081322332
:100BB00030831FBF08959A938A93802F98E0082F5F
:100BC0000170C2DF8695002309F080689A95092F8D
:100BD000902F0023A1F7082F8991999108950FEF85
:100BE000EADF08950E94B308B02FC90169DF082F1A
:100BF000092B69F005E5DFDFA8E0FC010081DBDF00
:100C00000196AA950A2FA02F0023B9F702C00CEC79
:100C1000D2DF0B2FD0DFE4E00C94C40800008895ED
:100C2000FECF40E050E060E070E00E94940810F4D5
:100C30000C94CF080E94CF08305808950FE80DBFDC
:100C400001E00EBFC0E5D1E00E94CD08002311F005
:100C50000E9451090E940C010E940E060C940E067F
:100C6000149F102D059F100D049F002D110D089548
:100C70004A951AF0000F111FFBCF0895002411248C
:100C8000EFE0001F111F001C111C0416150610F0C8
:100C9000041A150AEA95AAF7001F111FA001009572
:100CA000109508955195419550400895FF2755237B
:100CB00012F4F160F7DF112312F4F09507D00E94CF
:100CC0003E06F0FD03D0F1FDEDCF0895119501959D
:100CD000104008954A952AF036952795179507955F
:100CE000F9CF089530952095109501951F4F2F4FFE
:100CF0003F4F0895FF27112477FB660F771F089455
:100D000009F4771F679517F8EE27002437FB220FA9
:100D1000331F089409F4331F279507F8089527FD1A
:100D20000EC0EE0F001F111F221F3A953230B8F788
:100D3000332319F427FD31E002C027FF30E0E0380B
:100D400021F400FF08940EF488940F4F1F4F2F4F8B
:100D50003F4F323038F4332319F427FD31E002C01D
:100D600027FF30E03F3F29F0220F000C37952795F1
:100D70000895ACC0032E002012F40E947206E02FEA
:100D8000012F122F232F3EE9D1CF0024F8CFBCDF53
:100D9000432F4F5748F04F3148F007FC91C03FE7D1
:100DA0002FEF1FEF0FEF089533278CC0322F212F25
:100DB000102F0E2F4F5141950E946A0607FE08958D
:100DC0000C947206F901EE0FFF1F37FBFF3F31F065
:100DD000EF2BE12BE02B8894B8940895E02BE12BC6
:100DE00021F008949894B89408959894889438942D
:100DF0000895FB01EE0FFF1F77FBFF3F31F0EF2B54
:100E0000E52BE42B8894B8940895E42BE52B69F343
:100E1000E8CFEFDF68F021F43723262F8A01089509
:100E2000372FFBCFE6DF20F00BF008957327EAF7AA
:100E300051C0C8DFE8F3B3F361F3DBDFC8F383F33A
:100E4000A1F358DF401751076207730731F401140B
:100E500011F10024E89488942BC078F0332E372FBA
:100E6000732D322E262F632D312E152F532D302E1C
:100E7000042F432D302C012C132C371739F0669595
:100E800057954795F795E0407395F7CFE7FBEE0F41
:100E9000E0E010246AF0EF0F041F151F261F60F416
:100EA000279517950795E79508F4689433953ECFF5
:100EB000EF0B040B150B260B39CFE0E87E27B9CFDB
:100EC000302D307822271127002708953FE7302959
:100ED00020E8F9CF3FEF2FEFF6CF8BDFD8F3D1F338
:100EE00070783727089585DFA8F3A3F3F9CF30781A
:100EF000372793CF67DF70F383F3A9F37ADF50F3DB
:100F0000B3F3A9F3F7DE0124E8943F57E040370F2D
:100F1000EF1F12F0D9F603C03A3E90F26894E0E079
:100F20000A92AA933A93AA27332422243327049FB0
:100F3000F001059FF00D712D731F149FF00D711DB1
:100F4000221C069F700D211C331C159F700D211C47
:100F5000331E249F700D211C331E169F200C311C44
:100F6000AA1F259F200C311CA31F269F300CA11DFA
:100F700039915EF43395A695379427947795F79534
:100F8000E79533953130BCF316C0AA2322F0332302
:100F900051F4339510C0339571F4A991099096CF0F
:100FA000A7FD09C03A95EE0FFF1F771F221C331CC7
:100FB000AA1F3230A8F7E894FE2B09F068942A2F74
:100FC0008101E72FA9910990BACE13DF10F00BF041
:100FD00087CF80CF0EDFE9F3E0F3032E072670CF33
:100FE000032E072673CFEEDEA0F37BF399F301DF28
:100FF00080F39BF3A9F37EDE012427FD06C0000FDA
:10100000111F221F3150E040F8CF67FD06C0440F8A
:10101000551F661F7150F040F8CFE894371BEF0B57
:101020003158EF4F2AF0EE23E9F63F3FD9F203C0E3
:101030003A3EA8F26894E0E0F0E0112413944017DF
:101040005107620738F0315008F46894000F111FFF
:10105000221FEE1F041B150B260BEF0B000F111F99
:10106000221FEE1FAA9379E17A95AAF004171507BB
:101070002607EF0730F0041B150B260BEF0B089427
:1010800001C08894111C221C331CAA1F000F111FC1
:10109000221FEE1FE9CFF0F9E894E22BE12BE02BC1
:1010A00009F06894A695379427941794E79508F467
:1010B00068947395B9F3A991332311F0F0FF09C037
:1010C000369427941794E79508F468943395313053
:1010D000BCF3012D122D232D32CE8BCE9894089582
:1010E000189408956FDED0F3C1F383DEB8F30417CC
:1010F00015072607370708957CDEA0F063DE90F021
:1011000029F0E32FE7273AF47317089572DE51F0C0
:101110004EF008940895041715072607370719F0AD
:1011200016F4B8F78894089564DEE0F34BDED0F34C
:10113000E7DFC0F308940895AF93BF93D8010190FF
:101140000D9241505040D9F7BF91AF910895FA9256
:10115000EA92DA92CA92BA92AA929A928A927A926F
:101160006A925A924A92BA93AA939A938A9308954A
:10117000FF84EE84DD84CC84BB84AA849984888433
:101180007F806E805D804C80BB81AA81998188813F
:10119000F0E0EC0FFD1FEF01089501E008950E94BB
:1011A000A708C801D901BF7741E050E060E87FE3BC
:1011B0003B2F0E947C0870F440E00E94720829F4E2
:1011C0000BED1FE029E43FE350C0CC24DD24EE24E6
:1011D000FF241CC00BEDC02E0FE0D02E09E4E02E42
:1011E000F72E40E07FEB082F48D02801390140E07E
:1011F00050E060E87FE38C019D013FD0A801B90178
:10120000820193010E94F307C801D901AC01BD011D
:101210008C019D012DD02801390144E25FEF6BE282
:101220007CEB26D048E854E466EA7EE328D048E127
:1012300050EC6FE370E423D045EB1CD0480159011A
:101240004AEE54EB66E870E48201930118D046EB55
:1012500011D0A801B901840195010E94F307AC01E6
:10126000BD0106D0A601B70108D0E0E10C94B80892
:101270000C947A075DEF68E670E40C941907FDDFC3
:10128000A201B301F5CF20E006D0E9F7089525913A
:1012900002D0E9F708952D9301501040202F212B03
:1012A000089586ED92E1FC0105911491FC013296BE
:1012B000A591B491FC01349625913491422F432B92
:1012C00019F0F901E4DF01C0DEDF069612E18C3D82
:0C12D000910748F308953F0090010000D2
:00000001FF
:00000001FF
