:100000000C9435021895189518951895189518950B
:100010001895189518951895189518951895189578
:100020001895189518951895189518951895189568
:100030001895189518951895189518951895189558
:100040000C9464011895189518951895189518959D
:100050001895189518951895189518951895189538
:100060001895189518951895415335303435202D2D
:1000700020636F6E76657274696F6E206F662054B0
:1000800069636B7320746F20416E676C6500A8957F
:100090000091600008610093600008E20093600036
:1000A0000EE105B90EE204B907E20BB906E00AB9A0
:1000B0004D9B04C001E00093DC0103C000E000930D
:1000C000DC0100E005BD08EB06BD00E004BD04E076
:1000D00005BD01E000936E0000E00093CD0101E05A
:1000E0000093DA0100E00093DB01A8957894009179
:1000F000DC01002309F49BC000E00093C10000E094
:100100000093C00006E00093C20007E40093C4001F
:1001100000E00093C50008E00093C100F2D008E6BB
:1001200010E00E941F020DE00E948C010AE00E9474
:100130008C0100E911E00E949E010DE00E948C01FB
:100140000AE00E948C010091DA010023E1F701E04E
:100150000093DA012A9801E0D7D00EB50093D001C0
:1001600001E0D2D00EB50093CF0101E0CDD00EB5A5
:100170000093CE014CE0EEECF1E000811181228190
:1001800033810E947302E2EDF1E000831183228348
:10019000338305EB11E00E949E010091D0010E9483
:1001A000AB0105EC11E00E949E010091CF010E947D
:1001B000AB0105EC11E00E949E010091CE010E946E
:1001C000AB0107EC11E00E949E01E2EDF1E000813D
:1001D0001181228133810E94C9024AEE54E064EB0E
:1001E0007DE30E947B030E94CB0220E030E0E6ED3D
:1001F000F1E00083118322833383E6EDF1E0008197
:100200001181228133810E94B50109EC11E00E9425
:100210009E010DE00E948C010AE00E948C01299B46
:1002200002C0299801C0299A2A9AA8958CCF00E08B
:100230000093C10000E00093C00006E00093C200FC
:100240000FE10093C40001E00093C5000CE00093AF
:10025000C10000E005BD08EB06BD00E004BD04E000
:1002600005BD01E000936E004CD078940091C10070
:100270000F7E0093C10004E00093DA01489903C0A7
:1002800004E00093DA010091DA010023B9F700914C
:10029000C10000610093C1000091C000102F17FF42
:1002A000FBCF0091C100102F11FFE0CF1091C600CD
:1002B000012F0F700430D1F618E71093DB01299855
:1002C0002A982A9AA895D2CF1A930A931FB708EBB7
:1002D00006BD0091DA01002329F00091DA010A95A8
:1002E0000093DA010091DB01002331F00091DB0182
:1002F0000A950093DB0101C0299A1FBF099119914A
:1003000018950FE50CBD0895102F1EBD0DB5202FBB
:1003100027FFFCCF0EB508951091C0001064109314
:10032000C0001091C1001E7F1093C1000093C60051
:100330001091C000212F26FFFBCF0895BA93AA93F6
:10034000D8010C91002321F00C91E6DF1196F9CF32
:10035000A991B99108958A93802F082F02950F7063
:1003600011D0082F0FD0899108959A938A932897D6
:10037000C8019E018C0116D08E01E0DF289689917C
:10038000999108959A938A93902F092F0F70802F37
:100390008A3010F0895C01C0805D082FBDDF899133
:1003A000999108950E94E703D801C9019D018C012C
:1003B00003D0E4E00C94ED030E94E703D801C901E7
:1003C000992332F49195819590400DE20C9302C0EF
:1003D0000BE20C9348EE53E08C010E945F02005D3B
:1003E000FD01018348EE53E08C010E945F028A0107
:1003F00044E650E00E945F02005DFD01028348EE8A
:1004000053E08C010E945F028A0144E650E00E94A2
:100410005F028A014AE050E00E945F02005DFD0138
:1004200003834AE050E08C010E945F02405DFD01C1
:10043000448300E0FD010583E4E00C94ED030E9499
:10044000E603C801A0E0B0E0FC01EA0FFB1F049145
:10045000A395402E002319F0042D5EDFF4CFE5E0D4
:100460000C94EC0300008895FECF0FE80DBF01E06F
:100470000EBFC0E5D1E00E94F603002311F00E94F8
:1004800006040E9447000E9432020C9432020024AB
:100490001124EFE0001F111F001C111C041615068B
:1004A00010F0041A150AEA95AAF7001F111FA001FF
:1004B0000095109508955195419550400895FF2756
:1004C000552312F4F160F7DF112312F4F09507D0F1
:1004D0000E944702F0FD03D0F1FDEDCF0895119584
:1004E0000195104008954A952AF03695279517955D
:1004F0000795F9CF089530952095109501951F4FD8
:100500002F4F3F4F0895FF27112477FB660F771F6A
:10051000089409F4771F679517F8EE27002437FB36
:10052000220F331F089409F4331F279507F8089505
:1005300027FD0EC0EE0F001F111F221F3A9532300B
:10054000B8F7332319F427FD31E002C027FF30E06C
:10055000E03821F400FF08940EF488940F4F1F4FE9
:100560002F4F3F4F323038F4332319F427FD31E059
:1005700002C027FF30E03F3F29F0220F000C3795E3
:1005800027950895A4C0E02F012F122F232F3EE9B5
:10059000D6CF0024F8CFC1DF432F4F5748F04F315B
:1005A00048F007FC8EC03FE72FEF1FEF0FEF0895D5
:1005B000332789C0322F212F102F0E2F4F514195F5
:1005C0000E94730207FE08950C947B02F901EE0F5E
:1005D000FF1F37FBFF3F31F0EF2BE12BE02B88941F
:1005E000B8940895E02BE12B21F008949894B894E6
:1005F00008959894889438940895FB01EE0FFF1F96
:1006000077FBFF3F31F0EF2BE52BE42B8894B89478
:100610000895E42BE52B69F3E8CFEFDF68F021F4D0
:100620003723262F8A010895372FFBCFE6DF20F0EE
:100630000BF008957327EAF74EC0C8DFE8F3B3F371
:1006400061F3DBDFC8F383F3A1F35DDF40175107EC
:100650006207730731F4011411F10024E8948894BF
:100660002BC078F0332E372F732D322E262F632D8B
:10067000312E152F532D302E042F432D302C012CCD
:10068000132C371739F0669557954795F795E04045
:100690007395F7CFE7FBEE0FE0E010246AF0EF0F61
:1006A000041F151F261F60F4279517950795E795DA
:1006B00008F46894339543CFEF0B040B150B260B0E
:1006C0003ECF302D307822271127002708953FE7AD
:1006D000302920E8F9CF3FEF2FEFF6CF8EDFD8F3A8
:1006E000D1F370783727089588DFA8F3A3F3F9CF03
:1006F0003078372796CF6ADF70F383F3A9F37DDF75
:1007000050F3B3F3A9F3FFDE0124E8943F57E04030
:10071000370FEF1F12F0D9F603C03A3E90F26894FB
:10072000E0E00A92AA933A93AA273324222433279B
:10073000049FF001059FF00D712D731F149FF00DA4
:10074000711D221C069F700D211C331C159F700DFE
:10075000211C331E249F700D211C331E169F200C5C
:10076000311CAA1F259F200C311CA31F269F300C73
:10077000A11D39915EF43395A6953794279477950A
:10078000F795E79533953130BCF316C0AA2322F0D4
:10079000332351F4339510C0339571F4A991099026
:1007A00096CFA7FD09C03A95EE0FFF1F771F221CB9
:1007B000331CAA1F3230A8F7E894FE2B09F0689486
:1007C0002A2F8101E72FA9910990C2CE4A92BA93AC
:1007D000AA939A938A9308954C80BB81AA819981A8
:1007E0008881F0E0EC0FFD1FEF01089501E008950E
:1007F00020E006D0E9F70895259102D0E9F70895A1
:100800002D9301501040202F212B089580E498E073
:10081000FC0105911491FC013296A591B491FC0163
:10082000349625913491422F432B19F0F901E4DFDE
:1008300001C0DEDF069618E08C34910748F3089576
:100840003D0090014C081000CD0100002D2D2D2DF4
:100850002D2D2D2D2D2D2D2D2D2D2D2D2D2D2D2DC8
:100860002D2D2D2D2D2D2D2D2D2D2D2D2D2D2D2DB8
:10087000005469636B2F416E676C65203D203078B2
:090880000020002F00603B200065
:00000001FF
:00000001FF
