:100000000C945A02189518951895189518951895E6
:100010001895189518951895189518951895189578
:100020001895189518951895189518951895189568
:100030001895189518951895189518951895189558
:100040000C94B6011895189518951895189518954B
:100050001895189518951895189518951895189538
:1000600018951895189518959A938A93A8950091C4
:10007000600008610093600008E2009360000FE1F7
:1000800005B90FE204B907E70BB90AE80AB94A9BB8
:1000900004C001E00093C10103C000E00093C1016E
:1000A00000E005BD08EB06BD00E004BD04E005BDB1
:1000B00001E000936E0000E00093B60101E00093C0
:1000C000BF0100E00093C001A89578940091C101A0
:1000D000002309F0ADC000E00093C10000E00093F0
:1000E000C00006E00093C20007E40093C40000E0F3
:1000F0000093C50008E00093C10029980CED00C0F2
:100100000A95E9F7299A4FD10091BF010023E1F741
:1001100001E00093BF012A985F9A89E0082F46D139
:100120000EB50093B8010091B8010F700093B801AB
:100130008AE0082F3BD10EB50093B70100E911E02A
:100140000E94F0010091B7011091B8010093B9012C
:100150001093BA010091B9011091BA010E94FD01FA
:100160000DE00E94DE010AE00E94DE010DE213E6CE
:1001700024E0015010402040E1F700C000005F98EB
:1001800089E0082F13D10EB50093B8010091B80192
:100190000F700093B8018AE0082F08D10EB50093C4
:1001A000B7010DE911E00E94F0010091B701109133
:1001B000B8010093BB011093BC010091BB011091E9
:1001C000BC010E94FD010DE00E94DE010AE00E94D8
:1001D000DE010091BB011091BC012091B901309169
:1001E000BA01021B130B0093BD011093BE0109EA73
:1001F00011E00E94F0010091BD011091BE010E942A
:10020000FD010DE00E94DE010AE00E94DE0101E630
:1002100016EB23E0015010402040E1F700C0000041
:10022000289B02C0289801C0289A2A9AA8956CCFCA
:1002300000E00093C10000E00093C00006E00093DE
:10024000C2000FE10093C40001E00093C5000CE080
:100250000093C10000E005BD08EB06BD00E004BD51
:1002600004E005BD01E000936E0029980CED00C08C
:100270000A95E9F7299A97D078942A985F9A89E0A5
:10028000082F94D00EB50093B8010091B8010F70FB
:100290000093B8018AE0082F89D00EB50093B7010A
:1002A0000091B7011091B8010093B9011093BA0100
:1002B0005F9889E0082F7AD00EB50093B8010091BD
:1002C000B8010F700093B8018AE0082F6FD00EB507
:1002D0000093B7010091B7011091B8010093BB01E1
:1002E0001093BC010091BB011091BC012091B90198
:1002F0003091BA01021B130B0093BD011093BE0194
:100300002A9A0091C1000F7E0093C10004E000937F
:10031000BF01489903C004E00093BF010091BF01F1
:100320000023B9F70091C10000610093C100009162
:10033000C000102F17FFFBCF0091C100102F11FF3D
:100340009CCF0091C600902F9F70963009F095CFFA
:1003500008E70093C00128980091BE010E94DE01C9
:100360000091BD010E94DE01A89587CF1A930A93E0
:100370001FB708EB06BD0091BF01002329F00091D3
:10038000BF010A950093BF010091C001002331F025
:100390000091C0010A950093C00101C0289A1FBFB7
:1003A0000991199118950FE50CBD0895102F1EBDE8
:1003B0000DB5202F27FFFCCF0EB508951091C0007A
:1003C00010641093C0001091C1001E7F1093C100F3
:1003D0000093C6001091C000212F26FFFBCF089587
:1003E000BA93AA93D8010C91002321F00C91E6DF77
:1003F0001196F9CFA991B99108959A938A93289764
:10040000C8019E018C0106D08E01EADF28968991F1
:10041000999108950E949802D801C9019D018C010B
:1004200003D0E4E00C949D020E949802D801C90117
:10043000992332F49195819590400DE20C9302C07E
:100440000BE20C9348EE53E08C010E948402005DA5
:10045000FD01018348EE53E08C010E9484028A0171
:1004600044E650E00E948402005DFD01028348EEF4
:1004700053E08C010E9484028A0144E650E00E940D
:1004800084028A014AE050E00E948402005DFD017E
:1004900003834AE050E08C010E948402405DFD012C
:1004A000448300E0FD010583E4E00C949D0200001C
:1004B0008895FECF0FE80DBF01E00EBFC0E5D1E08B
:1004C0000E94A602002311F00E94B6020E9434008E
:1004D0000E9457020C94570200241124EFE0001FE1
:1004E000111F001C111C0416150610F0041A150A21
:1004F000EA95AAF7001F111FA00100951095089515
:100500005195419550400895FF27552312F4F1600D
:10051000F7DF112312F4F09507D00E946C02F0FD72
:1005200003D0F1FDEDCF0895119501951040089588
:10053000BA93AA939A938A930895BB81AA819981C9
:100540008881F0E0EC0FFD1FEF01089501E00895B0
:1005500020E006D0E9F70895259102D0E9F7089543
:100560002D9301501040202F212B089580EA95E013
:10057000FC0105911491FC013296A591B491FC0106
:10058000349625913491422F432B19F0F901E4DF81
:1005900001C0DEDF069615E08C3A910748F3089516
:1005A00026009001AC050C00B60100007A65726F60
:1005B0003A20414443203D20006F6E653A2041447B
:1005C00043203D20007369676E3A20414443203D3B
:0205D000200009
:00000001FF
:00000001FF
