:100000000C94FD0518951895189518951895189540
:100010001895189518951895189518951895189578
:100020001895189518951895189518951895189568
:100030001895189518951895189518951895189558
:100040000C94E0041895189518951895189518951E
:100050001895189518951895189518951895189538
:100060001895189518951895192E282EA80160E056
:1000700080E090E018C0FA01E80FF91F008018E056
:10008000062F0170702D717007270170013011F477
:1000900078E167276695013009F4606806941A953F
:1000A000113070F701968217930729F7062F822DDA
:1000B000912D08950E947608A02FC9010E943F0546
:1000C0000E942305002351F09C0104E40E94D10505
:1000D000A13011F00E942C0500E001C002E0E3E035
:1000E0000C9487080E9475082997D80120E030E019
:1000F0000EEB0E94D10580E008C00E94CE05FE01F3
:1001000090E0E80FF91F008383958930B0F329E070
:1001100030E08E010E943400002311F003E013C090
:10012000088102950F700F7089818295807F807F92
:10013000082B07FB2EF40F7E1FE7101B012F01C0B9
:1001400000680C9300E02996E4E00C9486080E9475
:10015000710800E31AE02DEE3EE3E9E5F1E00083EB
:1001600011832283338306EE19ED26EF3EE3EDE59E
:10017000F1E000831183228333834DEF57E06AEA75
:100180007EE307E813E028E13FE3EFED4E2EE7E3DF
:100190005E2EE7EB6E2EEEE37E2E89EA9DE6ABE166
:1001A000BFE30E941F0740E050E060E070E40E945F
:1001B000B507E1E6F1E00083118322833383A201D6
:1001C000B3018C019D010E941F0740E050E060E0F8
:1001D00070E40E94B507E5E6F1E000831183228315
:1001E0003383E8E00C9482080E9469082A970BE7A1
:1001F0000BB902EC0AB905E005B907E004B94D9B5B
:1002000004C001E00093720103C000E0009372019A
:1002100000E000936E0100917201002379F100E08B
:100220000093C00000E00093C10006E00093C2000C
:1002300007E40093C40000E00093C50008E00093C9
:10024000C10062E04AE250E02BE230E009E210E057
:100250000E940E050E943F0500E00093810000E02F
:100260000093850000E00093840001C02A9A95D194
:1002700050D361D32A9BFACF2A98F9CF00E000939C
:10028000C00000E00093C10006E00093C2000FE14F
:100290000093C40001E00093C50008E00093C10092
:1002A00000E005BD08EB06BD00E004BD04E005BDAF
:1002B00001E000936E0006E900936F010FE00093E8
:1002C00070012A9B02C02A9801C02A9A03B70160D4
:1002D00003BF3DDF00E000936D0119C0ACD2409137
:1002E0006D0150E008E010E00E940F0620E431E0CC
:1002F000200F311F60E571E08901FB0148E050E00B
:100300000E945E0800916D01039500936D010091BC
:100310006D01023018F32A9B02C02A9801C02A9A64
:10032000789404C02A9A0FE0009370010091C100F4
:100330000F7E0093C10004E000937101489903C04F
:1003400004E000937101009171010023B9F700915D
:10035000C10000610093C10004C00091C600009379
:1003600073010091C000102F17FDF7CF0091C0005E
:10037000102F17FFFBCF0091C100102F11FFD6CF18
:100380000091C60000937301009173010F700093F8
:10039000730100917301053009F0FAC0289840916B
:1003A00052015091530100915001109151010E944E
:1003B0001D0620E030E00E948706E9E5F1E040817B
:1003C0005181628173810E941F07E1E6F1E0408163
:1003D0005181628173810E94B5070E831F83288734
:1003E0003987009154011091550140915601509167
:1003F00057010E941D0620E030E00E948706EDE5CF
:10040000F1E040815181628173810E941F07E5E61E
:10041000F1E040815181628173810E94B5076801DA
:100420007901A601B7010E811F81288539850E94B7
:10043000B507280139014E815F816885798586017C
:1004400097010E94B50748015901820193010E945A
:10045000F0050801190140E050E064E373E4800115
:1004600091010E943C07080119014BED5FE069E42E
:1004700070E4800191010E94B5070A831B832C83DD
:100480003D83840195010E94F00540E050E064E363
:1004900073E40E943C074BED5FE069E470E40E9466
:1004A000B507280139010E811F81288539850E94F1
:1004B0008906B801860197010E948906A801772361
:1004C0002AF400E010E0061B170B01C08B01552336
:1004D0002AF420E030E0241B350B01C09A010217FA
:1004E00013072CF555232AF08A819B81AC81BD81AD
:1004F00037C05523AAF577236AF040E050E064E363
:1005000073E40A811B812C813D810E94DB06C801B6
:10051000D90126C040E050E064E373EC0A811B81FE
:100520002C813D810E94DB06C801D90119C07723C7
:100530005AF0A201B30100E010E024EB32E40E9483
:100540001F07C801D9010CC0772352F4A201B301DF
:1005500000E010E024EB32EC0E941F07C801D90133
:100560008C019D010E9489069801332352F400E01A
:1005700010E0021B130B08831983098100680983AB
:1005800002C028833983088102D2098100D2289AC7
:1005900004D02A9BC7CE2A98C6CE4DD140916E0179
:1005A00050E008E010E00E940F0620E431E0200F48
:1005B000311F60E571E08901FB0148E050E00E94D5
:1005C0005E0800E010E020E030E0E9E6F1E00083C2
:1005D00011832283338300E000936D0121C0409199
:1005E0006D0150E008E010E00E940F06F801E05CA9
:1005F000FE4F0081118120E030E0E9E6F1E040812A
:10060000518162817381400F511F621F731F4083AC
:1006100051836283738300916D01039500936D0193
:1006200000916D010230D8F2E9E6F1E0008111811C
:10063000228133813695279517950795E9E6F1E0F4
:100640000083118322833383E9E6F1E00081118185
:10065000009350011093510100E010E020E030E0E1
:10066000E9E6F1E0008311832283338300E0009305
:100670006D0121C040916D0150E008E010E00E9442
:100680000F06F801E05CFE4F0281138120E030E0AC
:10069000E9E6F1E04081518162817381400F511F91
:1006A000621F731F408351836283738300916D01C6
:1006B000039500936D0100916D010230D8F2E9E6D7
:1006C000F1E00081118122813381369527951795BC
:1006D0000795E9E6F1E00083118322833383E9E69D
:1006E000F1E000811181009352011093530100E069
:1006F00010E020E030E0E9E6F1E00083118322839E
:10070000338300E000936D0121C040916D0150E002
:1007100008E010E00E940F06F801E05CFE4F048143
:10072000158120E030E0E9E6F1E04081518162810D
:100730007381400F511F621F731F40835183628377
:10074000738300916D01039500936D0100916D011C
:100750000230D8F2E9E6F1E0008111812281338193
:100760003695279517950795E9E6F1E00083118303
:1007700022833383E9E6F1E0008111810093540183
:100780001093550100E010E020E030E0E9E6F1E0F0
:10079000008311832283338300E000936D0121C025
:1007A00040916D0150E008E010E00E940F06F80152
:1007B000E05CFE4F0681178120E030E0E9E6F1E0E1
:1007C0004081518162817381400F511F621F731FED
:1007D000408351836283738300916D01039500937D
:1007E0006D0100916D010230D8F2E9E6F1E000817F
:1007F0001181228133813695279517950795E9E672
:10080000F1E00083118322833383E9E6F1E0008184
:100810001181009356011093570100916E010395C9
:1008200000936E0100916E01023019F400E0009314
:100830006E0178940895F89400E00093850000E03C
:10084000009384004B99FECF4B9BFECF02E00093B8
:1008500081004B99FECF00E000938100009184005D
:1008600000935001009185000093510100E0009336
:10087000850000E0009384004B99FECF4B9BFECF98
:1008800002E0009381004B99FECF4B9BFECF00E02E
:100890000093810000918400009352010091850033
:1008A0000093530100E00093850000E00093840072
:1008B0004C99FECF4C9BFECF02E0009381004C99F7
:1008C000FECF00E00093810000918400009354016A
:1008D000009185000093550100E00093850000E041
:1008E000009384004C99FECF4C9BFECF02E0009316
:1008F00081004C99FECF4C9BFECF00E0009381001D
:1009000000918400009356010091850000935701E7
:10091000089520E030E001E00E945A0006EA1FE45A
:1009200026E0015010402040E1F7000008E511E00A
:100930000E94720008958A938AE5082F28D00091BA
:100940005001800F24D000915101800F20D00091E0
:100950005201800F1CD000915301800F18D00091DC
:100960005401800F14D000915501800F10D00091D8
:100970005601800F0CD000915701800F08D00091D4
:100980005801800F04D0082F02D089910895299A28
:100990001091C1001F7E1093C1001091C00010641F
:1009A0001093C0000093C6000091C000102F16FFE6
:1009B000FBCF29980091C10000610093C100089508
:1009C0001A930A931FB708EB06BD0091710100232B
:1009D00029F0009171010A95009371010091700155
:1009E0000F700023B9F000916F01002331F00091E6
:1009F0006F010A9500936F010DC0009170010A9577
:100A00000093700106E900936F012A9B02C02A98A7
:100A100001C02A9A1FBF0991199118954093790135
:100A200050937A01209377013093780100937501F8
:100A300010937601462F01E010E00E941706009304
:100A400074011DD00895E0917501F0917601008147
:100A5000109174010123089500917401E0917701D0
:100A6000F09178011081102B108300917401E091B6
:100A70007901F0917A011081102B10830895009173
:100A800074010095E0917701F091780110811023B5
:100A9000108300917401E0917901F0917A01108145
:100AA000102B108307E215E001501040E9F700C059
:100AB00000001FB7F894009174010095E09179014E
:100AC000F0917A0120812023208302EF0A95F1F72B
:100AD000E0917501F091760100812091740102236B
:100AE0001FBF22E734E021503040E9F70000E091D9
:100AF0007501F09176011081209174011223112368
:100B000009F401E008951FB7F89420917401E09171
:100B10007901F0917A013081322B308323E02A95DC
:100B2000F1F700C0002351F0209174012095E0916D
:100B30007901F0917A0130813223308300C00000C6
:100B4000E0917501F09176012081309174012323A9
:100B5000222309F400E025EA2A95F1F72091740197
:100B60002095E0917901F0917A0130813223308330
:100B70001FBF08959A938A93802F98E0082F0170E1
:100B8000C2DF8695002309F080689A95092F902F7F
:100B90000023A1F7082F8991999108950FEFEADFBB
:100BA00008950E947508B02FC90169DF082F092B2D
:100BB00069F005E5DFDFA8E0FC010081DBDF0196DD
:100BC000AA950A2FA02F0023B9F702C00CECD2DFA0
:100BD0000B2FD0DFE4E00C94860800008895FECF50
:100BE00040E050E060E070E00E94560810F40C9481
:100BF00091080E949108305808950FE30DBF01E05D
:100C00000EBFC0E2D1E00E948F08002311F00E94C5
:100C100013090E94F4000E94ED050C94ED05149F49
:100C2000102D059F100D049F002D110D08954A955C
:100C30001AF0000F111FFBCF089500241124EFE0DC
:100C4000001F111F001C111C0416150610F0041AB9
:100C5000150AEA95AAF7001F111FA001009510952B
:100C600008954A952AF03695279517950795F9CF57
:100C7000089530952095109501951F4F2F4F3F4FA8
:100C80000895FF27112477FB660F771F089409F456
:100C9000771F679517F8EE27002437FB220F331FC5
:100CA000089409F4331F279507F8089527FD0EC00F
:100CB000EE0F001F111F221F3A953230B8F7332371
:100CC00019F427FD31E002C027FF30E0E03821F4BD
:100CD00000FF08940EF488940F4F1F4F2F4F3F4F83
:100CE000323038F4332319F427FD31E002C027FFF6
:100CF00030E03F3F29F0220F000C379527950895EB
:100D0000A7C0E02F012F122F232F3EE9D6CF0024BA
:100D1000F8CFC1DF432F4F5748F04F3148F007FC61
:100D200091C03FE72FEF1FEF0FEF089533278CC0DF
:100D3000322F212F102F0E2F4F5141950E94310637
:100D400007FE08950C943906F901EE0FFF1F37FBDB
:100D5000FF3F31F0EF2BE12BE02B8894B8940895FE
:100D6000E02BE12B21F008949894B894089598947E
:100D7000889438940895FB01EE0FFF1F77FBFF3F27
:100D800031F0EF2BE52BE42B8894B8940895E42BF5
:100D9000E52B69F3E8CFEFDF68F021F43723262F46
:100DA0008A010895372FFBCFE6DF20F00BF008957E
:100DB0007327EAF751C0C8DFE8F3B3F361F3DBDF71
:100DC000C8F383F3A1F35DDF401751076207730790
:100DD00031F4011411F10024E89488942BC078F0C8
:100DE000332E372F732D322E262F632D312E152FB4
:100DF000532D302E042F432D302C012C132C37175C
:100E000039F0669557954795F795E0407395F7CF7C
:100E1000E7FBEE0FE0E010246AF0EF0F041F151F50
:100E2000261F60F4279517950795E79508F46894B1
:100E3000339543CFEF0B040B150B260B3ECFE0E8A9
:100E40007E27B9CF302D307822271127002708952B
:100E50003FE7302920E8F9CF3FEF2FEFF6CF8BDFC8
:100E6000D8F3D1F370783727089585DFA8F3A3F37B
:100E7000F9CF3078372793CF67DF70F383F3A9F387
:100E80007ADF50F3B3F3A9F3FCDE0124E8943F5773
:100E9000E040370FEF1F12F0D9F603C03A3E90F250
:100EA0006894E0E00A92AA933A93AA273324222472
:100EB0003327049FF001059FF00D712D731F149FC0
:100EC000F00D711D221C069F700D211C331C159FF7
:100ED000700D211C331E249F700D211C331E169F84
:100EE000200C311CAA1F259F200C311CA31F269FFC
:100EF000300CA11D39915EF43395A6953794279453
:100F00007795F795E79533953130BCF316C0AA2352
:100F100022F0332351F4339510C0339571F4A99125
:100F2000099096CFA7FD09C03A95EE0FFF1F771FD6
:100F3000221C331CAA1F3230A8F7E894FE2B09F0BC
:100F400068942A2F8101E72FA9910990BFCE13DF62
:100F500010F00BF087CF80CF0EDFE9F3E0F3032E24
:100F6000072670CF032E072673CFEEDEA0F37BF3A8
:100F700099F301DF80F39BF3A9F383DE012427FDBE
:100F800006C0000F111F221F3150E040F8CF67FD4F
:100F900006C0440F551F661F7150F040F8CFE8940B
:100FA000371BEF0B3158EF4F2AF0EE23E9F63F3FA6
:100FB000D9F203C03A3EA8F26894E0E0F0E01124D0
:100FC000139440175107620738F0315008F46894C1
:100FD000000F111F221FEE1F041B150B260BEF0B1A
:100FE000000F111F221FEE1FAA9379E17A95AAF034
:100FF000041715072607EF0730F0041B150B260B07
:10100000EF0B089401C08894111C221C331CAA1FEA
:10101000000F111F221FEE1FE9CFF0F9E894E22B19
:10102000E12BE02B09F06894A69537942794179448
:10103000E79508F468947395B9F3A991332311F0F7
:10104000F0FF09C0369427941794E79508F4689444
:1010500033953130BCF3012D122D232D37CE8BCE9D
:1010600098940895189408956FDED0F3C1F383DE49
:10107000B8F3041715072607370708957CDEA0F09C
:1010800063DE90F029F0E32FE7273AF47317089511
:1010900072DE51F04EF008940895041715072607E4
:1010A000370719F016F4B8F78894089564DEE0F372
:1010B0004BDED0F3E7DFC0F308940895AF93BF93FE
:1010C000D80101900D9241505040D9F7BF91AF9196
:1010D0000895FA92EA92DA92CA92BA92AA929A92EF
:1010E0008A927A926A925A924A92BA93AA939A935D
:1010F0008A930895FF84EE84DD84CC84BB84AA8423
:10110000998488847F806E805D804C80BB81AA81B9
:1011100099818881F0E0EC0FFD1FEF01089501E057
:1011200008950E946908C801D901BF7741E050E0E5
:1011300060E87FE33B2F0E943E0870F440E00E948D
:10114000340829F40BED1FE029E43FE350C0CC2420
:10115000DD24EE24FF241CC00BEDC02E0FE0D02EAA
:1011600009E4E02EF72E40E07FEB082F48D028015D
:10117000390140E050E060E87FE38C019D013FD001
:10118000A801B901820193010E94B507C801D901E4
:10119000AC01BD018C019D012DD02801390144E233
:1011A0005FEF6BE27CEB26D048E854E466EA7EE32E
:1011B00028D048E150EC6FE370E423D045EB1CD01D
:1011C000480159014AEE54EB66E870E4820193014C
:1011D00018D046EB11D0A801B901840195010E94F5
:1011E000B507AC01BD0106D0A601B70108D0E0E10A
:1011F0000C947A080C943C075DEF68E670E40C945C
:10120000DB06FDDFA201B301F5CF20E006D0E9F750
:101210000895259102D0E9F708952D9301501040CB
:10122000202F212B08958AE592E1FC01059114916C
:10123000FC013296A591B491FC013496259134912C
:10124000422F432B19F0F901E4DF01C0DEDF0696DF
:1012500012E18036910748F308953B0040010000F9
:00000001FF
:00000001FF
