:100000000C94060518951895189518951895189537
:100010001895189518951895189518951895189578
:100020001895189518951895189518951895189568
:100030001895189518951895189518951895189558
:100040000C949B0218951895189518951895189565
:100050001895189518951895189518951895189538
:1000600018951895189518954144495331363230F2
:1000700033202D20636F6E76657274696F6E206F0A
:1000800066205469636B7320746F20416E676C65E2
:01009000006F
:100092000E94C506A8950091600008610093600067
:1000A20008E2009360000DE105B90DE204B903EE28
:1000B2000BB902ED0AB94D9B04C001E00093340272
:1000C20003C000E00093340200E000931C0201E050
:1000D2000093320200E000933302A89578940091D5
:1000E2003402002309F0B8C100E00093C10000E02F
:1000F2000093C00006E00093C20007E40093C4002E
:1001020000E00093C50008E00093C10000E005BDD7
:1001120008EB06BD00E004BD04E005BD01E000936C
:100122006E005F980CEC1AE001501040E9F700C035
:100132005F9A05EF1FE628E0015010402040E1F7EA
:1001420000C0000014D208E610E00E94F0040DE0A6
:100152000E945D040AE00E945D0400E911E00E9431
:100162006F040DE00E945D040AE00E945D0495D3D5
:1001720094D384D383D3009132020023E1F701E0C8
:10018200009332022A980EE0402E042DF3D1009300
:100192002502009125020F73009325020CE0402EE8
:1001A200042DE8D10093240205EB11E00E946F04B4
:1001B200009125020E947C04009124020E947C048A
:1001C20005EC11E00E946F040091240210912502B7
:1001D200D9D1009324021093250200912402109198
:1001E200250220E030E00E94A50540E050E060E8F2
:1001F2007EE30E945A060E94A705009322021093F2
:10020200230200912202109123020E94860407EC2D
:1002120011E00E946F040DE00E945D040AE00E945A
:100222005D042A9A02E10A95F1F700002A980AE091
:10023200402E042D9FD100932D0200912D020F73A9
:1002420000932D020EE0402E042D94D100932C0237
:1002520000912C0210912D02000F111F000F111F8F
:1002620000932C0210932D0244E050E000912C02E6
:1002720010912D020E94360500932C0210932D023C
:100282000BEC11E00E946F0400912D020E947C048D
:1002920000912C020E947C0405EC11E00E946F0484
:1002A20000912C0210912D02212F220F220B322FAE
:1002B2000E949A054DEC5CEC6CEC7CE30E945A06C1
:1002C2000E94A70500932A0210932B0200912A0292
:1002D20010912B020E94860407EC11E00E946F0429
:1002E2000DE00E945D040AE00E945D042A9A02E188
:1002F2000A95F1F700002A980CE0402E042D3AD11D
:1003020000933102009131020F70009331020AE032
:10031200402E042D2FD10093300244E00091300290
:10032200109131020E94180500933002109331029D
:1003320040E150E000913002109131020E943605F6
:10034200009330021093310203EE11E00E946F0419
:10035200009131020E947C04009130020E947C04D0
:1003620005EC11E00E946F040091300210913102FD
:100372000E3F24E012072CF100913002109131025D
:100382000E5F1440212F220F220B322F0E949A055A
:10039200C801D90147ED53EA60EF7EE38C019D016C
:1003A2000E945A06A801B90100E010E028EC31E4ED
:1003B2000E943D060E94A70500932E0210932F0271
:1003C20024C00EEF14E02091300230913102021B62
:1003D200130B212F220F220B322F0E949A05C801E4
:1003E200D90147ED53EA60EF7EE38C019D010E9443
:1003F2005A0640E050E068EC71E40E94F9050E9460
:10040200A70500932E0210932F0200912E02109145
:100412002F020E94860409EF11E00E946F040DE092
:100422000E945D040AE00E945D0405EF1FE628E0D9
:10043200015010402040E1F700C0000022E300918B
:100442002E0210912F02FED0289B02C0289801C0D4
:10045200289A2A9AA8958FCE00E00093C10000E066
:100462000093C00006E00093C2000FE10093C400B5
:1004720001E00093C5000CE00093C10000E005BD5F
:1004820008EB06BD00E004BD04E005BD01E00093F9
:100492006E005F980CEC1AE001501040E9F700C0C2
:1004A2005F9A05EF1FE628E0015010402040E1F777
:1004B20000C000005CD07894F0D1EFD1DFD1DED162
:1004C200A0E0B0E0A03001E0B00718F4C7D0119668
:1004D200F9CF0091C1000F7E0093C10004E00093A8
:1004E2003202489903C004E00093320200913202C2
:1004F2000023B9F70091C10000610093C10000918F
:10050200C000102F17FFFBCF0091C100102F11FF69
:10051200E0CF0091C600802F8F70843049F49ED0C6
:10052200009123020E945D04009122020E945D0458
:10053200A895CFCF1A930A931FB708EB06BD009177
:100542003202002329F0009132020A95009332020E
:1005520000913302002331F0009133020A95009397
:10056200330201C0289A1FBF0991199118950FE50E
:100572000CBD0895102F1EBD0DB5202F27FFFCCFF7
:100582000EB50895B80100911C0210E0000F111F72
:10059200F801E450FE4F6083718300E010E020E038
:1005A20030E0EDE1F2E0008311832283338300E047
:1005B2000093210200912102003100F500912102F5
:1005C20010E0000F111FF801E450FE4F008111816D
:1005D20020E030E0EDE1F2E0008011802280338003
:1005E200000E111E221E331E0082118222823382CD
:1005F20000912102039500932102DCCF44E0EDE15A
:10060200F2E000811181228133810E944A05EDE1ED
:10061200F2E00083118322833383EDE1F2E0008173
:10062200118122813381B80100911C02039500934C
:100632001C0200911C02003119F400E000931C021C
:100642008B01089530E02017310714F05C9A089569
:1006520030E0201731070CF45C9808950E94C5061B
:1006620008E70093330228982A980AE0402E042DC6
:1006720081DF00932502009125020F73009325026A
:100682000BE0402E042D76DF009324020091240219
:100692001091250220E030E00E94A50540E050E0E4
:1006A20060E87EE30E945A060E94A7050093220298
:1006B200109323020091220210912302063425E0B6
:1006C200120748F4E2E2F2E0008111810653174F6B
:1006D2000083118318C0009122021091230200317D
:1006E2002EE0120780F400912202109123020634B8
:1006F20025E0120740F0E2E2F2E0008111810654A7
:1007020015400083118300912202109123023ADFE7
:1007120000932202109323020091220210912302DD
:100722000A3C28E0120788F000912202109123026D
:1007320000312EE0120748F4E2E2F2E0008111817A
:100742000A5C18400083118310C0009122021091AC
:1007520023020A3C28E0120740F4E2E2F2E00081C0
:1007620011810A5B1A4F008311832A9A02E10A95CA
:10077200F1F700002A980CE0402E042DFBDE0093D6
:100782003102009131020F70009331020DE0402ED0
:10079200042DF0DE0093300244E00091300210910B
:1007A20031020E941805009330021093310240E199
:1007B20050E000913002109131020E943605009300
:1007C20030021093310200913002109131020E3F3B
:1007D20024E012072CF100913002109131020E5FD9
:1007E2001440212F220F220B322F0E949A05C8019A
:1007F200D90147ED53EA60EF7EE38C019D010E942F
:100802005A06A801B90100E010E028EC31E40E9488
:100812003D060E94A70500932E0210932F0224C0CA
:100822000EEF14E02091300230913102021B130BC3
:10083200212F220F220B322F0E949A05C801D901C3
:1008420047ED53EA60EF7EE38C019D010E945A0658
:1008520040E050E068EC71E40E94F9050E94A705AF
:1008620000932E0210932F0222E300912E02109188
:100872002F02E8DE2A9AE5E00C94CB068A932A98A6
:1008820088EB082F77DE0093270288E0082F72DEBC
:10089200009326022A9A899108958A932A9886EBD0
:1008A200082F68DE0093290281E0082F63DE00939F
:1008B20028022A9A899108951091C0001064109319
:1008C200C0001091C1001E7F1093C1000093C600AA
:1008D2001091C000212F26FFFBCF0895BA93AA934F
:1008E200D8010C91002321F00C91E6DF1196F9CF8B
:1008F200A991B99108958A93802F082F02950F70BC
:1009020011D0082F0FD0899108959A938A9328972E
:10091200C8019E018C0116D08E01E0DF28968991D4
:10092200999108959A938A93902F092F0F70802F8F
:100932008A3010F0895C01C0805D082FBDDF89918B
:10094200999108950E94C606D801C9019D018C01A2
:1009520003D0E4E00C94CC060E94C606D801C9017B
:10096200992332F49195819590400DE20C9302C047
:100972000BE20C9348EE53E08C010E943605005DB9
:10098200FD01018348EE53E08C010E9436058A0185
:1009920044E650E00E943605005DFD01028348EE08
:1009A20053E08C010E9436058A0144E650E00E9421
:1009B20036058A014AE050E00E943605005DFD01DD
:1009C20003834AE050E08C010E943605405DFD0140
:1009D200448300E0FD010583E4E00C94CC060E9410
:1009E200C506C801A0E0B0E0FC01EA0FFB1F0491BC
:1009F200A395402E002319F0042D5EDFF4CFE5E02D
:100A02000C94CB0600008895FECF0FE80DBF01E0E5
:100A12000EBFC0E5D1E00E94D506002311F00E946E
:100A2200E5060E9449000E9403050C9403054A95BD
:100A32001AF0000F111FFBCF089500241124EFE0DC
:100A4200001F111F001C111C0416150610F0041AB9
:100A5200150AEA95AAF7001F111FA001009510952B
:100A620008955195419550400895FF27552312F45A
:100A7200F160F7DF112312F4F09507D00E941E05F2
:100A8200F0FD03D0F1FDEDCF0895119501951040D1
:100A920008954A952AF03695279517950795F9CF27
:100AA200089530952095109501951F4F2F4F3F4F78
:100AB2000895FF27112477FB660F771F089409F426
:100AC200771F679517F8EE27002437FB220F331F95
:100AD200089409F4331F279507F8089527FD0EC0DF
:100AE200EE0F001F111F221F3A953230B8F7332341
:100AF20019F427FD31E002C027FF30E0E03821F48D
:100B020000FF08940EF488940F4F1F4F2F4F3F4F52
:100B1200323038F4332319F427FD31E002C027FFC5
:100B220030E03F3F29F0220F000C379527950895BA
:100B3200ACC0032E002012F40E945205E02F012FB8
:100B4200122F232F3EE9D1CF0024F8CFBCDF432F51
:100B52004F5748F04F3148F007FC91C03FE72FEF65
:100B62001FEF0FEF089533278CC0322F212F102F44
:100B72000E2F4F5141950E944A0507FE08950C948D
:100B82005205F901EE0FFF1F37FBFF3F31F0EF2B4C
:100B9200E12BE02B8894B8940895E02BE12B21F00F
:100BA20008949894B89408959894889438940895E1
:100BB200FB01EE0FFF1F77FBFF3F31F0EF2BE52B21
:100BC200E42B8894B8940895E42BE52B69F3E8CFDD
:100BD200EFDF68F021F43723262F8A010895372F9B
:100BE200FBCFE6DF20F00BF008957327EAF751C040
:100BF200C8DFE8F3B3F361F3DBDFC8F383F3A1F3F8
:100C020058DF401751076207730731F4011411F1DD
:100C12000024E89488942BC078F0332E372F732D5C
:100C2200322E262F632D312E152F532D302E042FC9
:100C3200432D302C012C132C371739F0669557951C
:100C42004795F795E0407395F7CFE7FBEE0FE0E0AD
:100C520010246AF0EF0F041F151F261F60F427955A
:100C620017950795E79508F4689433953ECFEF0BF7
:100C7200040B150B260B39CFE0E87E27B9CF302DB8
:100C8200307822271127002708953FE7302920E8EE
:100C9200F9CF3FEF2FEFF6CF8BDFD8F3D1F3707898
:100CA2003727089585DFA8F3A3F3F9CF30783727E4
:100CB20093CF67DF70F383F3A9F37ADF50F3B3F3D3
:100CC200A9F3F7DE0124E8943F57E040370FEF1F06
:100CD20012F0D9F603C03A3E90F26894E0E00A922C
:100CE200AA933A93AA27332422243327049FF0019C
:100CF200059FF00D712D731F149FF00D711D221CA5
:100D0200069F700D211C331C159F700D211C331E74
:100D1200249F700D211C331E169F200C311CAA1F0C
:100D2200259F200C311CA31F269F300CA11D399139
:100D32005EF43395A695379427947795F795E795C2
:100D420033953130BCF316C0AA2322F0332351F479
:100D5200339510C0339571F4A991099096CFA7FDF0
:100D620009C03A95EE0FFF1F771F221C331CAA1FE2
:100D72003230A8F7E894FE2B09F068942A2F8101FB
:100D8200E72FA9910990BACE4A92BA93AA939A935D
:100D92008A9308954C80BB81AA8199818881F0E071
:100DA200EC0FFD1FEF01089501E0089520E006D049
:100DB200E9F70895259102D0E9F708952D9301509E
:100DC2001040202F212B08958EEF9DE0FC0105910C
:100DD2001491FC013296A591B491FC0134962591AF
:100DE2003491422F432B19F0F901E4DF01C0DEDF19
:100DF20006961EE08A30910748F308956C00900130
:100E02000A0E3900FC0100002D2D2D2D2D2D2D2D2A
:100E12002D2D2D2D2D2D2D2D2D2D2D2D2D2D2D2D00
:100E22002D2D2D2D2D2D2D2D2D2D2D2D0054696384
:100E32006B2F416E676C65203D203078002F00607B
:100E42003B20005469636B5F3138302F416E676C11
:100E5200655F313830203D20307800546F636B2F4E
:100E620054656D7065726174757265203D203078CD
:040E720000604300D9
:00000001FF
:00000001FF
