:1000360075D701D2C075C072E4F5A8F5B87598F009
:10004600F588758921758DF7758CFB758A7375CB67
:10005600FF75CAE575EF9E75FD1F75FC0E75FBD322
:1000660085B010E5101313543FF5105310077406AE
:100076002510F510D28CD28EC29CD2AF1201DEC2F0
:10008600B6750B04D2A920B003750B04E50B70F608
:10009600C2A9C298859911D29C3098FDC29CC20211
:1000A600C202309A13C29AD202E599540FF508B5E6
:1000B6001006D203C202C2B5300203120235300363
:0A00C60005E4FF12020AD2B580B56E
:10020A00D2B6300306850C21850D22C29B85219921
:10021A003099FDC299C29B8522993099FDC29912E3
:0A022A0000D0300303120133C203B9
:0102340022A7
:10013300200058E4FFEF25E02415F8E6FC08E6FD6F
:10014300EF25E02413F8A60408A6050FBF03E685F0
:100153000E19850F1AE4F50CF50DFFEF25E02413B6
:10016300F8E6FC08E6250DF50DEC350CF50C0FBF94
:1001730004E9E50DAE0C7802CEC313CE13D8F9FF14
:0B018300C374FF9FF50D740F9EF50C78
:01018E00224E
:0B023500E4FF1200D0120133C20222CD
:1001DE00E4F5FAF5F9C200752101E4FF1200D0E44E
:1001EE00FF1200D0E52125E02413F8A60E08A60F75
:0C01FE000521E521C3940440E102013317
:1000D0008F2312018FE523705920003275FA0F75B6
:1000E000F9FFD200D3E50F94D3E50E940E400FE54F
:1000F0000F242DF50AE50E34F1F509D20122C3745F
:10010000D3950FF50A740E950EF509C20122E4F598
:10011000FAF5F9C20030010EC3E50F950AF50FE5B7
:100120000E9509F50E22E50A250FF50FE509350EA6
:03013000F50E22A7
:10018F00E4FB8FD8F527F526F525F52475CCE57515
:10019F00CDFFD204D2AED2CA2004FDAE11AF12E40D
:1001AF00FCFDE5272FF527E5263EF526ED3525F550
:1001BF0025EC3524F5240BD204EB70DCC2AEC2CA99
:0E01CF0085250E85260FC2AFD2C0D2C1D2AF99
:0101DD0022FF
:03000B0002000EE2
:10000E00C0E0758CFB758A73E50B6002150BD0E0B2
:01001E0032AF
:0300330002001FA9
:10001F00C0E0E5DA540FF51185D912C204D0E032F1
:03000000020003F8
:06000300758127020036A2
:00000001FF
