:100000000C9434000C9446000C9446000C9446006A
:100010000C9446000C9446000C9446000C94460048
:100020000C9446000C9446000C9446000C94460038
:100030000C9446000C9446000C9446000C94460028
:100040000C9446000C9446000C9446000C94460018
:100050000C9446000C9446000C9446000C94460008
:100060000C9446000C94460011241FBECFEFD4E040
:10007000DEBFCDBF11E0A0E0B1E001C01D92A13F05
:10008000B107E1F70E94FF000C94C4020C94000039
:1000900010928500109284004B99FECF4B9BFECFAF
:1000A00082E0809381004B99FECF10928100809175
:1000B00084008093E301809185008093E401109295
:1000C0008500109284004B99FECF4B9BFECF82E0BF
:1000D000809381004B99FECF4B9BFECF1092810005
:1000E000809184008093E501809185008093E601F2
:1000F00010928500109284004C99FECF4C9BFECF4D
:1001000082E0809381004C99FECF10928100809113
:1001100084008093E701809185008093E80110922C
:100120008500109284004C99FECF4C9BFECF82E05C
:10013000809381004C99FECF4C9BFECF10928100A2
:10014000809184008093E901809185008093EA0189
:1001500008958091C00085FFFCCF8AE58093C6009A
:100160009091DB018091C00085FFFCCF9093C60089
:10017000E091DC018091C00085FFFCCFE093C600D8
:100180007091DD018091C00085FFFCCF7093C600A7
:100190006091DE018091C00085FFFCCF6093C600B6
:1001A0005091DF018091C00085FFFCCF5093C600C5
:1001B0004091E0018091C00085FFFCCF4093C600D4
:1001C0003091E1018091C00085FFFCCF3093C600E3
:1001D0002091E2018091C00085FFFCCF2093C600F2
:1001E0008091C00085FFFCCF9E0F965A970F960F07
:1001F000950F940F930F920F9093C6000895EF926E
:10020000FF920F931F931092C0001092C10086E0DE
:100210008093C20087E48093C4001092C50088E0F8
:100220008093C1008FEF8BB982EC8AB985E085B9E4
:1002300087E084B9109281001092850010928400AA
:100240001092020110920301109204011092050114
:100250001092D0011092CF011092D7011092D801C4
:100260001092D9011092DA0110920101109200014E
:100270001092ED011092EE011092EF011092F00138
:100280001092EC011092EB011092D3011092D40164
:100290001092D5011092D6011092D2011092D10184
:1002A00080E012C0E82FF0E0A3E0EE0FFF1FAA9558
:1002B000E1F7E95FFE4F11821082138212821582EC
:1002C0001482178216828F5F893160F38093060152
:1002D0000E9448002091CF013091D0014091E3016C
:1002E0005091E4017A0100E010E0809102019091C8
:1002F0000301A0910401B0910501E80EF91E0A1F47
:100300001B1FF90173E0EE0FFF1F7A95E1F7E95F1C
:10031000FE4F80819181A0E0B0E0E81AF90A0A0B53
:100320001B0BE0920201F092030100930401109371
:100330000501518340832F5F3F4F3093D0012093BD
:10034000CF012931310521F41092D0011092CF0153
:10035000C801B70129E130E040E050E00E94A2026C
:100360003093DC012093DB012091000130910101E9
:100370004091E5015091E6017A0100E010E08091A2
:10038000D7019091D801A091D901B091DA01E80E7E
:10039000F91E0A1F1B1FF90163E0EE0FFF1F6A958C
:1003A000E1F7E95FFE4F82819381A0E0B0E0E81AB7
:1003B000F90A0A0B1B0BE092D701F092D8010093C7
:1003C000D9011093DA01538342832F5F3F4F30935B
:1003D0000101209300012931310521F4109201011E
:1003E00010920001C801B70129E130E040E050E07F
:1003F0000E94A2023093DE012093DD012091EB01E7
:100400003091EC014091E7015091E8017A0100E060
:1004100010E08091ED019091EE01A091EF01B0917B
:10042000F001E80EF91E0A1F1B1FF90193E0EE0F01
:10043000FF1F9A95E1F7E95FFE4F84819581A0E067
:10044000B0E0E81AF90A0A0B1B0BE092ED01F092FA
:10045000EE010093EF011093F001558344832F5F69
:100460003F4F3093EC012093EB012931310521F40A
:100470001092EC011092EB01C801B70129E130E0C4
:1004800040E050E00E94A2023093E0012093DF019F
:100490002091D1013091D2014091E9015091EA01BE
:1004A0007A0100E010E08091D3019091D401A091F5
:1004B000D501B091D601E80EF91E0A1F1B1FF901E4
:1004C00083E0EE0FFF1F8A95E1F7E95FFE4F86811B
:1004D0009781A0E0B0E0E81AF90A0A0B1B0BE09242
:1004E000D301F092D4010093D5011093D601578324
:1004F00046832F5F3F4F3093D2012093D1012931A2
:10050000310521F41092D2011092D101C801B70136
:1005100029E130E040E050E00E94A2023093E20185
:100520002093E1010E94A9002A9B02C02A98D0CE04
:100530002A9ACECE982F8091C00085FFFCCF909351
:10054000C6000895A1E21A2EAA1BBB1BFD010DC017
:10055000AA1FBB1FEE1FFF1FA217B307E407F50773
:1005600020F0A21BB30BE40BF50B661F771F881F4F
:10057000991F1A9469F760957095809590959B01E5
:0C058000AC01BD01CF010895F894FFCF3D
:00000001FF
