:100000000C9420071895189518951895189518951B
:100010001895189518951895189518951895189578
:100020001895189518951895189518951895189568
:100030001895189518951895189518951895189558
:100040000C94EB0518951895189518951895189512
:100050001895189518951895189518951895189538
:100060001895189518951895192E282EA80160E056
:1000700080E090E018C0FA01E80FF91F008018E056
:10008000062F0170702D717007270170013011F477
:1000900078E167276695013009F4606806941A953F
:1000A000113070F701968217930729F7062F822DDA
:1000B000912D08950E948509A02FC9010E94620612
:1000C0000E944606002351F09C0104E40E94F406BD
:1000D000A13011F00E944F0600E001C002E0E3E011
:1000E0000C9496090E9484092997D80120E030E0F9
:1000F0000EEB0E94F40680E008C00E94F106FE01AB
:1001000090E0E80FF91F008383958930B0F329E070
:1001100030E08E010E943400002311F003E010C093
:10012000088102950F700F7089818295807F807F92
:10013000082B07FB16F40F7701C000680C9300E052
:100140002996E4E00C9495090E94780901E21CE8E4
:100150002DEE3EE3E9EAF1E000831183228333834D
:1001600000E416E926EF3EE3EDEAF1E000831183B7
:100170002283338348E15DE06AEA7EE30EEF002EDE
:100180000AE0102E08E1202E0FE3302E03EEC02EE1
:1001900006E5D02E06EBE02E0EE3F02E0BEC802EC3
:1001A00006E0902E0BE1A02E0FE3B02E4424552440
:1001B00000EB602E00EC702E80E090E0A0E2B1E455
:1001C00000E010E020E233E4EDEBF1E00083118386
:1001D00022833383800191010E942E0808011901B6
:1001E00040E050E060E070E4800191010E94C408AA
:1001F000E1EBF1E00083118322833383A601B70191
:10020000840195010E942E0840E050E060E070E417
:100210000E94C408E5EBF1E000831183228333835D
:10022000A201B3018C019D010E942E083F7740E09E
:1002300050E06CED72E40E94C408E9EBF1E0008349
:10024000118322833383E0E10C9489090E947809A9
:1002500026970BE70BB902EC0AB905E005B907E0F0
:1002600004B94D9B04C001E00093CA0103C000E043
:100270000093CA0162E04AE250E02BE230E009E27A
:1002800010E00E94310600E005BD08EB06BD00E06D
:1002900004BD04E005BD01E000936E0000E00093A2
:1002A000C80108E017E00093CC011093CD0101E0F4
:1002B0000093C90100E00093C6012A9B02C02A985E
:1002C00001C02A9A78940091CA01002359F100E0F4
:1002D0000093C10000E00093C00006E00093C2005C
:1002E00007E40093C40000E00093C50008E0009319
:1002F000C10000E00093810000E00093850000E071
:100300000093840001C02A9A0091C9010023E1F7FB
:1003100001E00093C90138D2F9D31DD42A9BF3CF51
:100320002A98F2CF00E00093C10000E00093C000E3
:1003300006E00093C2000FE10093C40001E00093C7
:10034000C5000CE00093C100FFDE00E00093C50192
:1003500019C06CD34091C50150E008E010E00E9444
:10036000320720E931E0200F311F60EA71E0890196
:10037000FB0148E050E00E946D090091C501039522
:100380000093C5010091C501023018F3BFD306E9FF
:100390000093C7010FE00093C8012A9B02C02A986E
:1003A00003C02A9A01C02A9A0091C1000F7E0093CF
:1003B000C10004E00093C901489903C004E0009320
:1003C000C9010091C9010023B9F70091C100006182
:1003D0000093C10004C00091C6000093CB010091BE
:1003E000C000102F17FDF7CF0091C000102F17FF8E
:1003F000FBCF0091C100102F11FFD6CF0091C60096
:100400000093CB010091CB010F700093CB010091C1
:10041000CB01053009F0AFC128980091A0011091DF
:10042000A10120E030E00E949607280139010091E7
:10043000A2011091A30120E030E00E949607A801DC
:10044000B901820193010E94C408E9EAF1E0408108
:100450005181628173810E942E08E1EBF1E04081BD
:100460005181628173810E94C4080A831B832C839B
:100470003D830091A4011091A50120E030E00E948D
:100480009607280139010091A6011091A70120E0EB
:1004900030E00E949607A801B901820193010E94F1
:1004A000C408EDEAF1E040815181628173810E94CC
:1004B0002E08E5EBF1E040815181628173810E9459
:1004C000C40848015901A401B5010A811B812C818E
:1004D0003D810E94C408280139014A815B816C81F9
:1004E0007D81840195010E94C4086801790182011F
:1004F00093010E9413070801190140E050E064E3F2
:1005000073E4800191010E944B08080119014BED31
:100510005FE069E470E4800191010E94C408280151
:100520003901860197010E9413070801190140E073
:1005300050E064E373E4800191010E944B080801DC
:1005400019014BED5FE069E470E4800191010E94C4
:10055000C408080119010A811B812C813D813F7764
:10056000A401B5017F770E944D09B0F540E050E04D
:1005700060E070E0840195010E94650918F4C201F1
:10058000D30155C040E050E060E070E08401950187
:100590000E944D0900F540E050E060E070E00A8103
:1005A0001B812C813D810E94650958F440E050E098
:1005B00064E373E4820193010E94EA07C801D90150
:1005C00036C040E050E064E373EC820193010E9486
:1005D000EA07C801D9012BC040E050E060E070E0BC
:1005E0000A811B812C813D810E94650958F4A0017C
:1005F000B10100E010E024EB32E40E942E08C801B3
:10060000D90115C040E050E060E070E00A811B8134
:100610002C813D810E944D0950F4A001B10100E000
:1006200010E024EB32EC0E942E08C801D9014FEFF4
:100630005FEF63E373EC8C019D010E946509A0F4F8
:1006400041E050E064EB72E48C019D010E944D0991
:1006500058F440E050E064EB72E48C019D010E948C
:10066000EA07C801D9010AC040E050E067E873EC2E
:100670008C019D010E94EA07C801D9010091A801DF
:1006800010E020E030E00E949607EDEBF1E04081C1
:100690005181628173810E944D0900F50091A8018A
:1006A00010E020E030E00E949607A801B901EDEBD0
:1006B000F1E000811181228133810E942E08E9EB53
:1006C000F1E040815181628173810E944B08AC014D
:1006D000BD010E94EA07C801D9012FC00091A801FD
:1006E00010E020E030E00E949607EDEBF1E0408161
:1006F0005181628173810E946509F8F40091A8011B
:1007000010E020E030E00E949607EDEBF1E0408140
:100710005181628173810E942E08E9EBF1E04081F2
:100720005181628173810E944B08A801B9018C013B
:100730009D010E942E08C801D90140E050E060E010
:100740007FE38C019D010E94EA070E9498079801AF
:10075000332352F400E010E0021B130B08831983CB
:1007600009810068098302C02883398308811FD268
:1007700009811DD2289A08D0C9D10FE00093C80181
:100780002A9B11CE2A9810CE8A938FB7F8944ED117
:100790004091C60150E008E010E00E94320720E9D5
:1007A00031E0200F311F60EA71E08901FB0148E070
:1007B00050E00E946D0900E010E020E030E0E1EC44
:1007C000F1E0008311832283338300E00093C501AD
:1007D00021C04091C50150E008E010E00E943207BE
:1007E000F801E057FE4F0081118120E030E0E1EC9C
:1007F000F1E04081518162817381400F511F621F7E
:10080000731F40835183628373830091C5010395F5
:100810000093C5010091C5010230D8F2E1ECF1E08E
:10082000008111812281338136952795179507958F
:10083000E1ECF1E00083118322833383E1ECF1E00A
:10084000008111810093A0011093A10100E010E04C
:1008500020E030E0E1ECF1E0008311832283338378
:1008600000E00093C50121C04091C50150E008E0BF
:1008700010E00E943207F801E057FE4F0281138119
:1008800020E030E0E1ECF1E0408151816281738150
:10089000400F511F621F731F408351836283738314
:1008A0000091C50103950093C5010091C501023077
:1008B000D8F2E1ECF1E0008111812281338136959B
:1008C000279517950795E1ECF1E0008311832283CA
:1008D0003383E1ECF1E0008111810093A2011093D8
:1008E000A30100E010E020E030E0E1ECF1E0008363
:1008F00011832283338300E00093C50121C040911E
:10090000C50150E008E010E00E943207F801E0570E
:10091000FE4F0481158120E030E0E1ECF1E0408100
:10092000518162817381400F511F621F731F408389
:100930005183628373830091C50103950093C501C0
:100940000091C5010230D8F2E1ECF1E000811181A3
:10095000228133813695279517950795E1ECF1E0D3
:100960000083118322833383E1ECF1E00081118164
:100970000093A4011093A50100E010E020E030E016
:10098000E1ECF1E0008311832283338300E00093E4
:10099000C50121C04091C50150E008E010E00E946F
:1009A0003207F801E057FE4F0681178120E030E062
:1009B000E1ECF1E04081518162817381400F511F70
:1009C000621F731F40835183628373830091C5014B
:1009D00003950093C5010091C5010230D8F2E1EC06
:1009E000F1E0008111812281338136952795179599
:1009F0000795E1ECF1E00083118322833383E1EC7E
:100A0000F1E0008111810093A6011093A7010091EC
:100A1000C60103950093C6010091C601023019F486
:100A200000E00093C6018FBF899108951FB7F89425
:100A300000E00093850000E0009384004B99FECF16
:100A40004B9BFECF02E0009381004B99FECF00E06C
:100A500000938100009184000093A0010091850023
:100A60000093A10100E00093850000E00093840062
:100A70004B99FECF4B9BFECF02E0009381004B9938
:100A8000FECF4B9BFECF00E00093810000918400DD
:100A90000093A201009185000093A30100E0009360
:100AA000850000E0009384004C99FECF4C9BFECF64
:100AB00002E0009381004C99FECF00E0009381009A
:100AC000009184000093A401009185000093A5018A
:100AD00000E00093850000E0009384004C99FECF75
:100AE0004C9BFECF02E0009381004C99FECF4C9BC3
:100AF000FECF00E000938100009184000093A601E6
:100B0000009185000093A7011FBF08958A9300916B
:100B1000CC011091CD01083027E01207D0F08FB73B
:100B2000F89420E030E001E00E945A0006EA1FE459
:100B300026E0015010402040E1F7000008EA11E0F3
:100B40000E94720000E010E00093CC011093CD01F0
:100B50008FBF899108958A938AE5082F28D0009144
:100B6000A001800F24D00091A101800F20D000911E
:100B7000A201800F1CD00091A301800F18D000911A
:100B8000A401800F14D00091A501800F10D0009116
:100B9000A601800F0CD00091A701800F08D0009112
:100BA000A801800F04D0082F02D089910895299AB6
:100BB0001091C00010641093C0001091C1001E7FFE
:100BC0001093C1000093C6000091C000102F16FFC3
:100BD000FBCF29980895FA93EA933A932A931A93AC
:100BE0000A933FB708EB06BD0091C901002329F025
:100BF0000091C9010A950093C9010091C8010F70C5
:100C00000023B9F00091C701002331F00091C70122
:100C10000A950093C7010DC00091C8010A95009381
:100C2000C80106E90093C7012A9B02C02A9801C0A7
:100C30002A9A0091CC011091CD01083027E01207CB
:100C400040F4ECECF1E0008111810F5F1F4F008355
:100C500011833FBF0991199129913991E991F99136
:100C600018954093D3015093D4012093D101309330
:100C7000D2010093CF011093D001462F01E010E084
:100C80000E943A070093CE011DD00895E091CF0154
:100C9000F091D00100811091CE01012308950091BF
:100CA000CE01E091D101F091D2011081102B10837F
:100CB0000091CE01E091D301F091D4011081102B6D
:100CC000108308950091CE010095E091D101F0913B
:100CD000D2011081102310830091CE01E091D30145
:100CE000F091D4011081102B108307E215E0015020
:100CF0001040E9F700C000001FB7F8940091CE0142
:100D00000095E091D301F091D4012081202320832C
:100D100002EF0A95F1F7E091CF01F091D001008147
:100D20002091CE0102231FBF22E734E02150304042
:100D3000E9F70000E091CF01F091D00110812091FE
:100D4000CE011223112309F401E008951FB7F8948E
:100D50002091CE01E091D301F091D4013081322B6A
:100D6000308323E02A95F1F700C0002351F0209151
:100D7000CE012095E091D301F091D401308132234E
:100D8000308300C00000E091CF01F091D0012081BC
:100D90003091CE012323222309F400E025EA2A958D
:100DA000F1F72091CE012095E091D301F091D4018B
:100DB0003081322330831FBF08959A938A93802F06
:100DC00098E0082F0170C2DF8695002309F0806843
:100DD0009A95092F902F0023A1F7082F89919991B7
:100DE00008950FEFEADF08950E948409B02FC9012A
:100DF00069DF082F092B69F005E5DFDFA8E0FC01BA
:100E00000081DBDF0196AA950A2FA02F0023B9F7F6
:100E100002C00CECD2DF0B2FD0DFE4E00C9495097C
:100E200000008895FECF40E050E060E070E00E9456
:100E3000650910F40C94A0090E94A0093058089587
:100E40000FE80DBF01E00EBFC0E5D1E00E949E0992
:100E5000002311F00E94220A0E9426010E9410071E
:100E60000C941007149F102D059F100D049F002D4A
:100E7000110D08954A951AF0000F111FFBCF089528
:100E80004A952AF03695279517950795F9CF089535
:100E900030952095109501951F4F2F4F3F4F089586
:100EA000FF27112477FB660F771F089409F4771F3B
:100EB000679517F8EE27002437FB220F331F08949D
:100EC00009F4331F279507F8089527FD0EC0EE0F8C
:100ED000001F111F221F3A953230B8F7332319F43F
:100EE00027FD31E002C027FF30E0E03821F400FFA9
:100EF00008940EF488940F4F1F4F2F4F3F4F3230FE
:100F000038F4332319F427FD31E002C027FF30E025
:100F10003F3F29F0220F000C379527950895A7C071
:100F2000E02F012F122F232F3EE9D6CF0024F8CF38
:100F3000C1DF432F4F5748F04F3148F007FC91C0B5
:100F40003FE72FEF1FEF0FEF089533278CC0322FAD
:100F5000212F102F0E2F4F5141950E94400707FE61
:100F600008950C944807F901EE0FFF1F37FBFF3F70
:100F700031F0EF2BE12BE02B8894B8940895E02B0F
:100F8000E12B21F008949894B8940895989488944B
:100F900038940895FB01EE0FFF1F77FBFF3F31F000
:100FA000EF2BE52BE42B8894B8940895E42BE52BE4
:100FB00069F3E8CFEFDF68F021F43723262F8A01A9
:100FC0000895372FFBCFE6DF20F00BF0089573274D
:100FD000EAF751C0C8DFE8F3B3F361F3DBDFC8F32E
:100FE00083F3A1F35DDF401751076207730731F404
:100FF000011411F10024E89488942BC078F0332E6A
:10100000372F732D322E262F632D312E152F532D72
:10101000302E042F432D302C012C132C371739F090
:10102000669557954795F795E0407395F7CFE7FBA1
:10103000EE0FE0E010246AF0EF0F041F151F261FCB
:1010400060F4279517950795E79508F4689433950C
:1010500043CFEF0B040B150B260B3ECFE0E87E27AA
:10106000B9CF302D307822271127002708953FE788
:10107000302920E8F9CF3FEF2FEFF6CF8BDFD8F301
:10108000D1F370783727089585DFA8F3A3F3F9CF5C
:101090003078372793CF67DF70F383F3A9F37ADFD4
:1010A00050F3B3F3A9F3FCDE0124E8943F57E0408A
:1010B000370FEF1F12F0D9F603C03A3E90F2689452
:1010C000E0E00A92AA933A93AA27332422243327F2
:1010D000049FF001059FF00D712D731F149FF00DFB
:1010E000711D221C069F700D211C331C159F700D55
:1010F000211C331E249F700D211C331E169F200CB3
:10110000311CAA1F259F200C311CA31F269F300CC9
:10111000A11D39915EF43395A69537942794779560
:10112000F795E79533953130BCF316C0AA2322F02A
:10113000332351F4339510C0339571F4A99109907C
:1011400096CFA7FD09C03A95EE0FFF1F771F221C0F
:10115000331CAA1F3230A8F7E894FE2B09F06894DC
:101160002A2F8101E72FA9910990BFCE13DF10F03C
:101170000BF087CF80CF0EDFE9F3E0F3032E0726D5
:1011800070CF032E072673CFEEDEA0F37BF399F327
:1011900001DF80F39BF3A9F383DE012427FD06C062
:1011A000000F111F221F3150E040F8CF67FD06C02D
:1011B000440F551F661F7150F040F8CFE894371B5D
:1011C000EF0B3158EF4F2AF0EE23E9F63F3FD9F20B
:1011D00003C03A3EA8F26894E0E0F0E011241394D2
:1011E00040175107620738F0315008F46894000F37
:1011F000111F221FEE1F041B150B260BEF0B000FF8
:10120000111F221FEE1FAA9379E17A95AAF0041705
:1012100015072607EF0730F0041B150B260BEF0B05
:10122000089401C08894111C221C331CAA1F000FB3
:10123000111F221FEE1FE9CFF0F9E894E22BE12BFA
:10124000E02B09F06894A695379427941794E795B6
:1012500008F468947395B9F3A991332311F0F0FF62
:1012600009C0369427941794E79508F46894339549
:101270003130BCF3012D122D232D37CE8BCE989417
:101280000895189408956FDED0F3C1F383DEB8F3A8
:10129000041715072607370708957CDEA0F063DEE4
:1012A00090F029F0E32FE7273AF47317089572DEE0
:1012B00051F04EF0089408950417150726073707D4
:1012C00019F016F4B8F78894089564DEE0F34BDE65
:1012D000D0F3E7DFC0F308940895AF93BF93D8012C
:1012E00001900D9241505040D9F7BF91AF910895B0
:1012F000FA92EA92DA92CA92BA92AA929A928A924E
:101300007A926A925A924A92BA93AA939A938A9339
:101310000895FF84EE84DD84CC84BB84AA84998400
:1013200088847F806E805D804C80BB81AA8199819A
:101330008881F0E0EC0FFD1FEF01089501E00895B2
:101340000E947809C801D901BF7741E050E060E808
:101350007FE33B2F0E944D0970F440E00E94430957
:1013600029F40BED1FE029E43FE350C0CC24DD2439
:10137000EE24FF241CC00BEDC02E0FE0D02E09E49C
:10138000E02EF72E40E07FEB082F48D028013901EE
:1013900040E050E060E87FE38C019D013FD0A80170
:1013A000B901820193010E94C408C801D901AC01AE
:1013B000BD018C019D012DD02801390144E25FEF70
:1013C0006BE27CEB26D048E854E466EA7EE328D062
:1013D00048E150EC6FE370E423D045EB1CD04801AA
:1013E00059014AEE54EB66E870E48201930118D08B
:1013F00046EB11D0A801B901840195010E94C408EF
:10140000AC01BD0106D0A601B70108D0E0E10C9403
:1014100089090C944B085DEF68E670E40C94EA07C8
:10142000FDDFA201B301F5CF20E006D0E9F7089572
:10143000259102D0E9F708952D9301501040202FF7
:10144000212B089588E794E1FC0105911491FC019A
:101450003296A591B491FC01349625913491422F96
:10146000432B19F0F901E4DF01C0DEDF069614E139
:0E1470008E37910748F3089545009001000063
:00000001FF
:00000001FF
