:100000000C949001189518951895189518951895B1
:100010001895189518951895189518951895189578
:100020001895189518951895189518951895189568
:100030001895189518951895189518951895189558
:100040000C942001189518951895189518951895E1
:100050001895189518951895189518951895189538
:1000600018951895189518954B4D41323030202D24
:100070002050726F6772616D6D61626C6520616E98
:0B008000676C652073656E736F720083
:10008C008A9307E60BB90EED0AB90DE105B90FE23B
:10009C0004B94D9B04C001E00093CA0103C000E009
:1000AC000093CA0100E005BD08EB06BD00E004BDED
:1000BC0004E005BD01E000936E0000E00093C80170
:1000CC0001E00093C9015A9B02C05A9801C05A9A88
:1000DC00789400E00093C10000E00093C00006E0BB
:1000EC000093C20007E40093C40000E00093C50035
:1000FC0008E00093C100CCD008E610E00E947A0121
:10010C000DE00E9459010AE00E94590100E911E03A
:10011C000E946D010DE00E9459010AE00E945901F4
:10012C000091C9010023E1F701E00093C90100919E
:10013C00CA01002309F060C0289B02C0289801C0A6
:10014C00289A5B9A2A9A2D985B980CEC10E4015033
:10015C001040E9F700002D9A0FEF15E30150104005
:10016C00E9F700C02A9887E0082F95D006E010E444
:10017C000093C5011093C6010091C601802F082F72
:10018C008AD00091C501802F082F85D088E0082FD8
:10019C0082D004E015E00093C5011093C6010091D4
:1001AC00C601802F082F77D00091C501802F082F12
:1001BC0072D080E3082F6FD02A9A0CEC1AE0015011
:1001CC001040E9F700C05C9A0BEE1FED20E10150E6
:1001DC0010402040E1F700C000005C982A980CEC1D
:1001EC001AE001501040E9F700C0289B02C0289883
:1001FC0001C0289A2A9A18C023982A9881E0082FBF
:10020C004AD005EB11E00E946D012A9A289B02C08E
:10021C00289801C0289A03EF1FE12AE001501040F2
:10022C002040E1F700C000005A9B02C05A9878CFDA
:10023C005A9A76CF1A930A931FB708EB06BD009112
:10024C00C901002329F00091C9010A950093C90145
:10025C000091C8010F700023B9F00091C701002371
:10026C0031F00091C7010A950093C7010DC00091B0
:10027C00C8010A950093C80106E90093C7015A9B6F
:10028C0002C05A9801C05A9A1FBF0991199118952A
:10029C000FE50CBD0895102F1EBD0DB5202F27FFA7
:1002AC00FCCF0EB50895299A1091C00010641093DC
:1002BC00C0001091C1001E7F1093C1000093C600B6
:1002CC001091C000212F26FFFBCF29980895BA93D7
:1002DC00AA93D8010C91002321F00C91E4DF119624
:1002EC00F9CFA991B99108950E94A201C801A0E08B
:1002FC00B0E0FC01EA0FFB1F0491A395402E0023F4
:10030C0019F0042DD0DFF4CFE5E00C94A801000027
:10031C008895FECF0FE80DBF01E00EBFC0E5D1E020
:10032C000E94B201002311F00E94C2010E944600FB
:10033C000E948D010C948D014A92BA93AA939A93C0
:10034C008A9308954C80BB81AA8199818881F0E0C1
:10035C00EC0FFD1FEF01089501E0089520E006D099
:10036C00E9F70895259102D0E9F708952D930150EE
:10037C001040202F212B089588EB93E0FC01059170
:10038C001491FC013296A591B491FC0134962591FF
:10039C003491422F432B19F0F901E4DF01C0DEDF69
:1003AC00069613E0843C910748F3089535009001BC
:1003BC00C4030600C50100002D2D2D2D2D2D2D2D36
:1003CC002D2D2D2D2D2D2D2D2D2D2D2D2D2D2D2D51
:1003DC002D2D2D2D2D2D2D2D2D2D2D2D00546963D5
:0D03EC006B2F416E676C65203D203078005E
:00000001FF
:00000001FF
