:020000020000FC
:020000001FC01F
:100040000FEF0DBF04E00EBF05E005B905E004B9F0
:10005000289A0E94870028980E94870000000000CC
:1000600000000000000008950E942E000E942E0053
:100070000E942E000E942E000E942E0008950E94D1
:1000800034000E9434000E9434000E94340008951D
:100090000E943F000E943F000E943F000E943F00DC
:1000A0000E943F000E943F000E943F000E943F00CC
:1000B0000E943F000E943F0008950E9448000E9455
:1000C00048000E9448000E9448000E9448000E9488
:1000D00048000E9448000E9448000E9448000E9478
:1000E000480008950E945D000E945D000E945D002E
:1000F0000E945D000E945D000E945D000E945D0004
:100100000E945D000E945D000E945D0008950E94B3
:1001100072000E9472000E9472000E9472000E948F
:1001200072000E9472000E9472000E9472000E947F
:1001300072000E94720008951A9902C02A9A88CF0C
:040140002A9886CFA4
:00000001FF
