:100000000C94F70318951895189518951895189548
:100010001895189518951895189518951895189578
:100020001895189518951895189518951895189568
:100030001895189518951895189518951895189558
:100040000C942603189518951895189518951895D9
:100050001895189518951895189518951895189538
:1000600018951895189518954144495331363230F2
:1000700039202D20636F6E76657274696F6E206F04
:1000800066205469636B7320746F20416E676C65E2
:01009000006F
:100092000E94B405A8950091600008610093600079
:1000A20008E2009360000DE305B90DE204B90BE22A
:1000B2000BB90AE10AB94D9B04C001E000930B029F
:1000C20003C000E000930B0200E00093FC0101E09A
:1000D2000093090200E000930A02A8957894009127
:1000E2000B02002309F0BFC100E00093C10000E051
:1000F2000093C00006E00093C20007E40093C4002E
:1001020000E00093C50008E00093C10000E005BDD7
:1001120008EB06BD00E004BD04E005BD01E000936C
:100122006E005B980CEC1AE001501040E9F700C039
:100132005B9A05EF1FE628E0015010402040E1F7EE
:1001420000C000009FD208E610E00E94E1030DE02B
:100152000E944E030AE00E944E0300E911E00E9451
:1001620060030DE00E944E030AE00E944E030091DC
:1001720009020023E1F701E0009309022A980EE048
:10018200402E042D82D200930002009100020F73D0
:10019200009300020FE0402E042D77D20093FF015E
:1001A2000091FF0110910002000F111F000F111F9B
:1001B2000093FF011093000244E050E00091FF0120
:1001C200109100020E9427040093FF011093000285
:1001D20005EB11E00E946003009100020E946D0392
:1001E2000091FF010E946D0309EC11E00E9460037F
:1001F2000091FF0110910002212F220F220B322FBA
:100202000E948B0440E050E060E87EE30E944905D2
:100212000E9496040093FD011093FE010091FD01DE
:100222001091FE010E9477030BEC11E00E94600323
:100232000DE00E944E030AE00E944E032A9A02E158
:100242000A95F1F700002A980AE0402E042D1DD2EB
:1002520000930402009104020F73009304020BE066
:10026200402E042D12D2009303020091030210913A
:100272000402000F111F000F111F009303021093BD
:10028200040244E050E000910302109104020E9433
:10029200270400930302109304020FEC11E00E9462
:1002A2006003009104020E946D03009103020E9408
:1002B2006D0309EC11E00E946003009103021091AA
:1002C2000402212F220F220B322F0E948B0440E0C6
:1002D20050E060E87EE30E9449050E949604009384
:1002E20001021093020200910102109102020E9487
:1002F20077030BEC11E00E9460030DE00E944E03B5
:100302000AE00E944E032A9A02E10A95F1F70000E0
:100312002A980CE0402E042DB8D1009308020091D7
:1003220008020F70009308020DE0402E042DADD19B
:100332000093070244E000910702109108020E9414
:100342000904009307021093080240E150E0009173
:100352000702109108020E942704009307021093DB
:10036200080203EE11E00E946003009108020E945D
:100372006D03009107020E946D0309EC11E00E94D7
:10038200600300910702109108020E3F24E0120759
:100392002CF100910702109108020E5F1440212FE8
:1003A200220F220B322F0E948B04C801D90147ED84
:1003B20053EA60EF7EE38C019D010E944905A8018A
:1003C200B90100E010E028EC31E40E942C050E9403
:1003D2009604009305021093060224C00EEF14E067
:1003E2002091070230910802021B130B212F220FCA
:1003F200220B322F0E948B04C801D90147ED53EA28
:1004020060EF7EE38C019D010E94490540E050E0CF
:1004120068EC71E40E94E8040E94960400930502CD
:100422001093060200910502109106020E947703C2
:1004320009EF11E00E9460030DE00E944E030AE002
:100442000E944E0305EF1FE628E0015010402040B5
:10045200E1F700C00000289B02C0289801C0289A3A
:100462002A9AA89584CE00E00093C10000E0009390
:10047200C00006E00093C2000FE10093C40001E057
:100482000093C5000CE00093C10000E005BD08EB3D
:1004920006BD00E004BD04E005BD01E000936E006E
:1004A2005B980CEC1AE001501040E9F700C05B9A2F
:1004B20005EF1FE628E0015010402040E1F700C0A0
:1004C2000000E0D078940091C1000F7E0093C1003B
:1004D20004E000930902489903C004E00093090272
:1004E200009109020023B9F70091C1000061009355
:1004F200C1000091C000102F17FFFBCF0091C10077
:10050200102F11FFE0CF0091C600902F9F709E30F8
:1005120009F04BC008E700930A0228982A988CE059
:10052200082FB3D000930002009100020F730093D2
:1005320000028FE0082FA9D00093FF010091FF0174
:1005420010910002000F111F000F111F0093FF01F5
:100552001093000244E050E00091FF01109100026C
:100562000E9427040093FF01109300020091FF01F3
:1005720010910002212F220F220B322F0E948B0496
:1005820040E050E060E87EE30E9449050E94960444
:100592000093FD011093FE012A9A0091FE010E9430
:1005A2004E030091FD010E944E039F3009F04BC0A3
:1005B20008E700930A0228982A988EE0082F65D04F
:1005C20000930402009104020F73009304028BE073
:1005D200082F5BD0009303020091030210910402E2
:1005E200000F111F000F111F00930302109304024A
:1005F20044E050E000910302109104020E9427049B
:10060200009303021093040200910302109104026A
:10061200212F220F220B322F0E948B0440E050E048
:1006220060E87EE30E9449050E949604009301025D
:10063200109302022A9A009102020E944E03009134
:1006420001020E944E03A8953ECF1A930A931FB748
:1006520008EB06BD00910902002329F0009109026E
:100662000A950093090200910A02002331F00091D9
:100672000A020A9500930A0201C0289A1FBF099133
:10068200199118950FE50CBD0895102F1EBD0DB5DB
:10069200202F27FFFCCF0EB508951091C0001064E3
:1006A2001093C0001091C1001E7F1093C1000093EF
:1006B200C6001091C000212F26FFFBCF0895BA93E8
:1006C200AA93D8010C91002321F00C91E6DF119638
:1006D200F9CFA991B99108958A93802F082F029595
:1006E2000F7011D0082F0FD0899108959A938A9391
:1006F2002897C8019E018C0116D08E01E0DF289652
:100702008991999108959A938A93902F092F0F7046
:10071200802F8A3010F0895C01C0805D082FBDDF18
:100722008991999108950E94B505D801C9019D0149
:100732008C0103D0E4E00C94BB050E94B505D801FE
:10074200C901992332F49195819590400DE20C9361
:1007520002C00BE20C9348EE53E08C010E94270486
:10076200005DFD01018348EE53E08C010E942704E5
:100772008A0144E650E00E942704005DFD010283E5
:1007820048EE53E08C010E9427048A0144E650E0BF
:100792000E9427048A014AE050E00E942704005D7B
:1007A200FD0103834AE050E08C010E942704405D72
:1007B200FD01448300E0FD010583E4E00C94BB05E8
:1007C2000E94B405C801A0E0B0E0FC01EA0FFB1FE3
:1007D2000491A395402E002319F0042D5EDFF4CF7F
:1007E200E5E00C94BA0500008895FECF0FE80DBF36
:1007F20001E00EBFC0E5D1E00E94C405002311F064
:100802000E94D4050E9449000E94F4030C94F40350
:100812004A951AF0000F111FFBCF089500241124EE
:10082200EFE0001F111F001C111C0416150610F02A
:10083200041A150AEA95AAF7001F111FA0010095D4
:10084200109508955195419550400895FF275523DD
:1008520012F4F160F7DF112312F4F09507D00E9431
:100862000F04F0FD03D0F1FDEDCF08951195019530
:10087200104008954A952AF03695279517950795C1
:10088200F9CF089530952095109501951F4F2F4F60
:100892003F4F0895FF27112477FB660F771F0894B7
:1008A20009F4771F679517F8EE27002437FB220F0C
:1008B200331F089409F4331F279507F8089527FD7D
:1008C2000EC0EE0F001F111F221F3A953230B8F7EB
:1008D200332319F427FD31E002C027FF30E0E0386E
:1008E20021F400FF08940EF488940F4F1F4F2F4FEE
:1008F2003F4F323038F4332319F427FD31E002C080
:1009020027FF30E03F3F29F0220F000C3795279553
:100912000895AAC0032E002012F40E944304E02F7F
:10092200012F122F232F3EE9D1CFBEDF432F4F5786
:1009320048F04F3148F007FC91C03FE72FEF1FEF1F
:100942000FEF089533278CC0322F212F102F0E2F37
:100952004F5141950E943B0407FE08950C944304B5
:10096200F901EE0FFF1F37FBFF3F31F0EF2BE12BB9
:10097200E02B8894B8940895E02BE12B21F00894A1
:100982009894B89408959894889438940895FB01A3
:10099200EE0FFF1F77FBFF3F31F0EF2BE52BE42B30
:1009A2008894B8940895E42BE52B69F3E8CFEFDF40
:1009B20068F021F43723262F8A010895372FFBCFC1
:1009C200E6DF20F00BF008957327EAF751C0C8DF85
:1009D200E8F3B3F361F3DBDFC8F383F3A1F35ADF88
:1009E200401751076207730731F4011411F1002413
:1009F200E89488942BC078F0332E372F732D322E43
:100A0200262F632D312E152F532D302E042F432DDB
:100A1200302C012C132C371739F0669557954795D2
:100A2200F795E0407395F7CFE7FBEE0FE0E0102477
:100A32006AF0EF0F041F151F261F60F42795179504
:100A42000795E79508F46894339540CFEF0B040BB4
:100A5200150B260B3BCFE0E87E27B9CF302D30783F
:100A620022271127002708953FE7302920E8F9CFF0
:100A72003FEF2FEFF6CF8BDFD8F3D1F37078372724
:100A8200089585DFA8F3A3F3F9CF3078372793CF02
:100A920067DF70F383F3A9F37ADF50F3B3F3A9F3BB
:100AA200F9DE0124E8943F57E040370FEF1F12F0C0
:100AB200D9F603C03A3E90F26894E0E00A92AA9313
:100AC2003A93AA27332422243327049FF001059F57
:100AD200F00D712D731F149FF00D711D221C069FC6
:100AE200700D211C331C159F700D211C331E249F79
:100AF200700D211C331E169F200C311CAA1F259F2E
:100B0200200C311CA31F269F300CA11D39915EF4CD
:100B12003395A695379427947795F795E79533956E
:100B22003130BCF316C0AA2322F0332351F433959B
:100B320010C0339571F4A991099096CFA7FD09C011
:100B42003A95EE0FFF1F771F221C331CAA1F32306B
:100B5200A8F7E894FE2B09F068942A2F8101E72F69
:100B6200A9910990BCCE4A92BA93AA939A938A9376
:100B720008954C80BB81AA8199818881F0E0EC0FB5
:100B8200FD1FEF01089501E0089520E006D0E9F786
:100B92000895259102D0E9F708952D930150104050
:100BA200202F212B08958CED9BE0FC0105911491DF
:100BB200FC013296A591B491FC01349625913491B1
:100BC200422F432B19F0F901E4DF01C0DEDF069664
:100BD2001BE0883E910748F308956C009001E80BF2
:100BE2001000FC0100002D2D2D2D2D2D2D2D2D2D34
:100BF2002D2D2D2D2D2D2D2D2D2D2D2D2D2D2D2D23
:100C02002D2D2D2D2D2D2D2D2D2D005469636B5F36
:100C1200782F416E676C655F78203D203078002F19
:100C220000603B20005469636B5F792F416E676CF3
:100C3200655F79203D20307800546F636B2F5465D7
:100C42006D7065726174757265203D203078006048
:020C520043005D
:00000001FF
:00000001FF
